:020000040800F2
:1000000000C00020F9550008A1580008A5580008B4
:10001000A9580008AD580008B15800080159000857
:100020000159000801590008015900080159000848
:10003000015900080159000801590008115E000823
:1000400001590008015900080159000861550008CC
:10005000015900080159000891700008B1700008AA
:10006000D1700008F17000081171000801590008F2
:1000700001590008015900080159000801590008F8
:100080000159000801590008795900080159000870
:100090000159000801590008015900083171000890
:1000A0009D600008C1600008E56000081D6100084F
:1000B00071610008E16100085162000801590008FF
:1000C00001590008015900080159000801590008A8
:1000D00001590008496500089D650008F1650008A0
:1000E00075710008A95500080159000879630008D6
:1000F0009D630008C1630008F9630008C95900083E
:100100000159000801590008C1620008015900089E
:1001100045660008996600083163000855630008C9
:100120000159000801590008015900080159000847
:1001300010B5054C237833B9044B13B10448AFF321
:1001400000800123237010BDF01200200000000089
:10015000808C000808B5064B1BB106480649AFF372
:1001600000800648036813B1054B03B1984708BDEA
:1001700000000000808C0008F4120020F012002023
:100180000000000004F0BBBC38B50D46044604F086
:10019000D1FC290A49006039204601F0FE0104F033
:1001A00060FD204604F036FDE9B2204604F059FD1A
:1001B000204604F02FFD204604F0BCFC2046A1217F
:1001C00004F04FFD204604F025FD0021204604F0F8
:1001D0006FFD0546204604F000FD204604F0C5FCF6
:1001E000284638BD70B50D461646044604F0A2FCFC
:1001F000290A49006039204601F0FE0104F031FD72
:10020000204604F007FDE9B2204604F02AFD20460E
:1002100004F000FD3146204604F023FD204604F0A2
:10022000F9FC204604F0A1FCBDE870400A2006F06D
:1002300099BE000008B5154A5178937843EA012326
:10024000A3F52043113B112B16D8DFE803F01B1D4B
:10025000090B0D151515151515151515150F111378
:10026000022008BD032008BD072008BD042008BDEA
:10027000052008BD062008BD00218022034808F0A3
:10028000A1FB08BD002008BD012008BD0C13002003
:1002900010B5074C6018114604F032FB054B1B7873
:1002A0001C4414F8073C1B1A5842584110BD00BFAB
:1002B0000C1300208F130020084B18795B7943EA58
:1002C000002045F25553984205D04CF20103C31A61
:1002D0005842584170470120704700BF0C1300205E
:1002E000044B9B79552B044B0CBF012200221A7042
:1002F000704700BF0C1300208C13002010B5084C71
:10030000E379552B01D1012010BD064802F0E6F833
:10031000E3798342F7D0D0F1010038BF002010BD4F
:100320000C1300209B13002013B50D4B1C7A552C89
:1003300001D1012012E00B48694602F02AF800239F
:100340001A461DF803108C42F3D019B90132D2B20B
:10035000052AEED00133052BF3D1002002B010BDE9
:100360000C1300209B13002070B505461E46FFF7B6
:100370008FFF044698B12846FFF79EFF044658B108
:100380002846FFF7ADFF2846FFF7B8FF044648B9F7
:1003900046B10C480C4911E00A480C490EE00948E6
:1003A0000B490BE02846FFF7BFFF044640B99DF814
:1003B00010300BB9012403E00248064906F0AAFBFD
:1003C000204670BDE813002002A00008B09F00087E
:1003D000DE9F000839A000081E4B13B51B78002BC8
:1003E00035D000230093042117220123FFF7BCFF1F
:1003F00020B3194B1C7A012C1DD11848D97C01F06F
:10040000ABFC70B1224616480F2104F035FF21469F
:10041000144800F0ADFF12482146022204F052FEBB
:100420000CE00F481021022204F026FF0E490F486D
:1004300006F070FB02E00A4804F0BCFC0C4B0648D6
:100440001A78002102B0BDE8104008F0BBBA02B033
:1004500010BD00BF090000200C1300209A130020DB
:10046000E41300209013002071A00008E81300207E
:100470008F130020184B07B51B784BB30023009354
:1004800004210A220123FFF76FFFC0B1134814496A
:1004900001F031FF38B11349134806F03BFB134814
:1004A0000321022209E012490F4806F033FB114BE9
:1004B0000A220E481A700421012204F0DDFE0E4BC0
:1004C0000E481A78002103B05DF804EB08F07ABA00
:1004D00003B05DF804FB00BF090000209B1300205F
:1004E000141300209FA00008E8130020E41300204C
:1004F000CFA00008E51300208F1300200C1300206C
:1005000013B50023009304210F22FFF72DFF10B332
:100510001D4C1E4804F10A0101F02BFA002830D0CE
:100520001A4804F10A0101F064FA50B31849194855
:1005300006F0F0FA1848E17901F097FFA0B11749E9
:10054000144806F0E7FA16480521012204F094FE4B
:100550000E4801F02FFB134B0B481A78002102B014
:10056000BDE8104008F02EBA0A480F4906F0D2FA4A
:100570000E4B0A221A700A480621012204F07CFE62
:10058000E9E704480A49F1E70C1300209D13002015
:1005900062A10008E81300209B130020FFA00008C0
:1005A000E41300208F13002031A10008E513002080
:1005B0008FA100080E4B07B51B78ABB10023009349
:1005C000042105220123FFF7CFFE20B101210948B4
:1005D0000A4604F077FD084B08481A78002103B05A
:1005E0005DF804EB08F0EEB903B05DF804FB00BF62
:1005F00009000020E41300208F1300200C130020BA
:10060000104B13B51B78DBB10124009404210622A2
:100610002346FFF7A9FE50B10B4B0C480721224699
:100620001C7004F029FE1020214606F06FFC084BD8
:1006300008481A78002102B0BDE8104008F0C2B99D
:1006400002B010BD090000208D130020E41300202B
:100650008F1300200C130020354B37B51B78002B6F
:1006600063D001240094042106222346FFF77CFE78
:1006700030B3304B1B7813B12F48304950E0304B2A
:100680001B7833BB2F4B1B781BBB2F4B1B7803BB3B
:100690002E4D2B7823B92E4B1B7803F0FF01DBB1D5
:1006A0001F2006F01DFC00B92870262006F018FC5B
:1006B00008B9274B18702B7883BB254B1B786BBB75
:1006C000244B25481A78002103B0BDE8304008F0DB
:1006D00079B91948214923E0102006F017FC26209B
:1006E00006F09AFB1F2006F097FB224609211C48C2
:1006F00004F0C2FD1B4803F0E1FD1F201A4902224D
:1007000006F06CFB02222620184906F067FB102039
:10071000214606F0FBFB05F06FFAD1E706481449C5
:1007200003B0BDE8304006F0F5B903B030BD00BFFE
:1007300009000020AF130020E8130020BCA100082E
:10074000AC130020AE130020AD130020B81300201E
:10075000B91300208F1300200C130020EEA1000815
:10076000E4130020BB130020F9290008652A0008C3
:1007700029A2000830B58D4B85B01B78002B00F006
:1007800012810123009304210722FFF7EDFD68B3D6
:10079000874B1B7853B1874B10221A708648002173
:1007A000022204F08FFC8548854967E0854C237858
:1007B0001BBB854B1B7803BB51E0844906F0AAF9AB
:1007C0007C4B0A221A707C482146022204F07AFCF3
:1007D0001F207F49022206F001FB26207D490222CC
:1007E00006F0FCFA1020012106F090FB7A4B002164
:1007F0001A787A4808F0E6F8D5E01F2006F070FB7A
:1008000000B92070262006F06BFB08B96E4B1870FB
:10081000237873BB6C4B1B785BBB262006F0FCFA7D
:100820001F2006F0F9FA1020002106F06FFB624845
:100830000B21012204F020FD684B9B7A8DF80F30CC
:100840009DF80F309DF80F30642B1AD99DF80F30AA
:10085000F02B4AD09DF80F30F12B64D145E0604B6E
:100860001B784BB95F4B1B7833B95F4B1B781BB9B7
:10087000D3E752485D4901E050485D4906F04AF926
:1008800091E05C4801F0E2FC04465A4801F078FB34
:1008900030B99DF80F3003B39DF80F30642B1CD096
:1008A0009DF80F309C42D1D15349444806F032F9AB
:1008B0000124404B4048214602221C7004F002FCF7
:1008C0001F204349022206F089FA262041490222CC
:1008D00006F084FA1020214622E09DF80F300BB973
:1008E000F02300E0F1238DF80F304449334806F03F
:1008F00011F99DF80F10424802F00EFD364B002111
:100900001A78364808F05EF81F203149022206F0B6
:1009100065FA26202F49022206F060FA10200121F4
:1009200006F0F4FA3FE0334801F02AFB044668B1D0
:100930009DF80F102F4801F005FC04461F48002CBD
:100940003FF43BAF2F4906F0E5F814E01B482E4971
:1009500006F0E0F82A4803F0B1FCE8B12B4917484B
:1009600006F0D8F89DF80F10224801F0EBFB054681
:1009700028B1274B1C70224803F006F810E01349F9
:100980000E4806F0C7F80B4B0A221A700A4829468F
:10099000022204F097FB03E008481E4906F0BAF86B
:1009A00005F02AF914E705B030BD00BF09000020AA
:1009B000AF130020E5130020E4130020E81300200B
:1009C00056A20008B8130020B913002042A3000863
:1009D000F9290008652A00088F1300200C13002055
:1009E000AE130020AC130020AD13002039A4000882
:1009F00064A400089B130020C3A2000886A200087C
:100A0000BB1300201CA3000879A30008D8A300088A
:100A1000B01300200AA40008194B37B51B786BB33C
:100A20000124009404210B222346FFF79DFCE0B132
:100A30001448154901F085FD054628B113480D21DC
:100A4000224604F019FC10E01149124806F062F841
:100A50000E480E21224604F00FFC0F4B0A221A709A
:100A60000A482946022204F02DFB0C4B0C481A7848
:100A7000002103B0BDE8304007F0A4BF03B030BD93
:100A8000090000209B13002016130020E41300200F
:100A9000BAA40008E8130020E51300208F130020FB
:100AA0000C13002010B50446FFF7C4FB07282DD80F
:100AB000DFE800F004090E131D2227182046BDE8C8
:100AC0001040FFF789BC2046BDE81040FFF7D2BCBC
:100AD0002046BDE81040FFF713BD2046BDE810409A
:100AE000FFF768BD2046BDE81040FFF789BD2046EE
:100AF000BDE81040FFF7B0BD2046BDE81040FFF74D
:100B000039BE2046BDE81040FFF786BF10BD00008B
:100B10002DE9F047484C00268146267005F06CF818
:100B200037463546454805F0C3FE00287FDD05F011
:100B300063F894F800A041480AF10103237005F01E
:100B400063FEDFF8108108F80A00032006F00AFAB5
:100B500023781022434413F8011C394806F05DF84D
:100B60003748384905F0C5FF94F90030002B06DA04
:100B7000314B002140468022197007F023FF227874
:100B800008EB020313F8013CFE2B03D1561EF6B20C
:100B90005FBB02E04FBB0D2B27D00027052DC1D135
:100BA0002949274805F0B6FF2548284905F0B2FF36
:100BB00036B9274B1B7893B14846FFF773FF0EE019
:100BC00021780023891BDAB2F0188A42C0B203F1FF
:100BD0000103EEDA18F8000008F80200F3E700233A
:100BE0002370BDE8F04705F007B8042D1BD8DFE8F7
:100BF00005F003070C1116000A3B5D425D4114E04D
:100C00000D2B0CBF022500250FE00A2B0CBF03257E
:100C100000250AE00D2B0CBF0425002505E00A2B5A
:100C2000BED0002501E00127B8E701277AE70023BD
:100C30002370BDE8F08700BF8F1300200014002050
:100C4000E8130020DDB20008D9A40008FDA40008C4
:100C5000080000200C13002008B50120002106F038
:100C6000EFF80120014606F051F93220002106F08C
:100C7000E7F81320002106F0E3F81420002106F025
:100C8000DFF81320002106F041F91420012106F0BD
:100C90003DF9BDE808403220002106F037B90000D8
:100CA000014805F063BE00BF0014002008B561B123
:100CB0000021142006F02AF9962006F053F9BDE829
:100CC00008401420012106F021B908BD08B5002113
:100CD000012006F01BF90C4805F04BFE0220002114
:100CE00006F0AEF80320002106F0AAF80220002149
:100CF00006F00CF90320002106F008F9BDE80840D1
:100D00001420002106F002B90014002010B50B7861
:100D1000452B12D14B78522B0FD18B78CC78303BAE
:100D200003EB8303303C04EB4304E4B221460A2284
:100D3000034805F07BFF204610BD0A2010BD00BF10
:100D4000E81300200B784F2B07D148784B2804D1AB
:100D500013704B780120537070470020704730B5F6
:100D60000020C4B20D5D01302C2D01D01D55F8E7D7
:100D7000601C5525C0B21D55904204D20C5C1C5419
:100D80000130C0B2F8E730BDF8B54C78432C08D13B
:100D90008C78532C05D1CC78B4F151056C426C4160
:100DA00000E000240026F5B24F5D01363A2FFAD15B
:100DB0000135EDB200279542FEB207F1010706D8D2
:100DC00011F805C0013501F806C0EDB2F3E73CB9F2
:100DD0002046C2B2B2420BD20A5C1A540130F8E784
:100DE000069A022412681470721ED2B2FFF7B7FF7F
:100DF0000120F8BD37B5144809B9144900E0144979
:100E000005F077FE642006F0ADF800240E4805F0EA
:100E10004FFD0028E5B208DD062C10D00A4805F089
:100E2000F3FC0DF804000134F0E745B19DF8023001
:100E30004F2B03D19DF803304B2B02D002E0002052
:100E400000E0012003B030BD0014002028A50008F8
:100E50002CA5000810B504460120014606F056F8FE
:100E600007484FF4165105F081FD20460121FFF798
:100E70001DFF20460121BDE81040FFF7BBBF00BFAA
:100E8000001400202DE9F0419EB005AD0C46074648
:100E90000021904628466422039307F093FD2146E3
:100EA0002C4805F026FE642006F05CF80024294852
:100EB00005F0FEFC0028E6B207DD642C45D025488D
:100EC00005F0A2FC28550134F1E726B92249234850
:100ED00005F020FE39E09DF814300D2B35D19DF83A
:100EE00015300A2B31D11EAB334413F8653C0A2B65
:100EF0002BD1023E1EAB334413F8643C0D2B24D19E
:100F00000021CCB2A31CDBB2B34201F1010107DA2C
:100F10001EAA134413F8643C144404F8643CF0E73C
:100F200038462946FFF7F2FE0A280CD103AB00939E
:100F30003846294622464346FFF726FF00280CBFC5
:100F40000320022002E0012000E003201EB0BDE8E3
:100F5000F08100BF0014002032A50008E813002033
:100F60002DE9F041B2B006460D46904600216422BC
:100F700068461F4607F026FD19A80021642207F0E5
:100F800021FD0024E3B2E85C013420B132AA13440D
:100F900003F8640CF6E70146CAB25D1818F802407F
:100FA000EDB232AA01312A4414B102F8644CF3E7DD
:100FB0000D2302F8643C6B1C32A8DBB203442F48BB
:100FC0000A2203F8642C036819A95B6898472C4827
:100FD000AA1C036819A99B68D2B29847642005F03F
:100FE000C1FF274805F064FC0028E5B208DD642C49
:100FF0003FD0234805F008FC0DF804000134F0E769
:10100000002D36D09DF800300D2B32D19DF80130E7
:101010000A2B2ED132AB2B4413F8C93C0A2B28D112
:10102000023D32AB2B4413F8C83C0D2B21D10021DB
:101030008B1CDBB2AB4201F1010209DA32A8034496
:1010400013F8C83CC9B2014401F8C83C1146EFE7A7
:1010500030466946FFF75AFE0A2808D130466946ED
:101060003A46FFF76FFE80F00100C0B202E00120B7
:1010700000E0032032B0BDE8F08100BFE81300209B
:1010800000140020F7B51E46044617460D46002101
:101090008DF80710FFF7AEFE04F0AEFD2046314696
:1010A0002FB12A460DF10703FFF7ECFE03E0089A83
:1010B0002B46FFF755FF03282AD8DFE800F011047C
:1010C0000207002311E01648164901E014481649AA
:1010D00005F020FD20460121FFF78CFE00201CE0DA
:1010E00012490F4805F016FD12E09DF807205E1C1E
:1010F000DBB29A420A4809D9E95C102205F08DFD5D
:1011000007480B4905F0F5FC3346EEE705F0F6FC21
:1011100020460121FFF76EFE012003B0F0BD00BFA5
:10112000E813002046A5000857A5000860A50008A0
:10113000DDB200082DE9F0438BB004AF80460021FA
:101140000922384602AE002407F03CFC00944046D9
:10115000314601222C4BFFF795FF054610B92B486D
:101160002B494BE02346F25C07AC092A01D8303208
:1011700004E0A2F10A01052998BF3732E254013395
:10118000082BF0D14FF0000922488DF8249000F090
:10119000D3FE0246C0B120491C4805F0BBFC1D48E7
:1011A000394600F037FE50B14B46E15CFA5C9142A3
:1011B00017D10133082BF8D1144818491EE01849FB
:1011C000124805F0A7FC07E0009440463146154B55
:1011D000FFF758FF054698B121460E4800F06AFE19
:1011E0000AE01149094805F095FC00974046314650
:1011F00000220C4BFFF746FF054601E005F08AFC94
:1012000028460BB0BDE8F0836CA50008E813002069
:1012100077A500089A13002097A500081FA60008CC
:10122000B5A50008D9A50008E2A500082DE9F04FF2
:1012300089B002AF07F10C068346894690461C46EA
:10124000304600210A2207F0BDFB002C48D1C7F828
:1012500004D05846CDF80080314601224B46FFF7B6
:1012600011FF824608B1214602E03C483C496BE050
:10127000CCB218F804300131002BF9D1E11D01F492
:10128000FC71ADEB010D02A9D8B2A04203D2F05C13
:10129000C8540133F8E70B46581AC0B2A0420DD229
:1012A00013F8010B092801D8303004E0A0F10A0539
:1012B000052DF1D8373003F8010CEDE70025EBB22E
:1012C000A3423FD24B5D013508EB050010F8010C3D
:1012D0009842F4D02148234905F01CFC7B689D46C8
:1012E0006C460023DAB219F8021001330A29F9D149
:1012F000931D03F4FC73ADEB030DA2F1020E02ABE0
:101300000020C1B2551EA94200F1010003DA19F80C
:1013100001505D54F5E700223D215A55584603F827
:101320000E10CDF800803146FFF7ACFE054628B917
:101330000A480D4905F0EEFBAA4601E04FF0010A0C
:10134000A54605E00548094905F0E4FB7B689D4694
:1013500050461C37BD46BDE8F08F00BFE8130020A3
:1013600049A600086FA60008C6A60008E8A600085F
:101370007FB50F2204460D466846002107F022FB88
:101380006348644905F0C6FB0A2604F035FC002DCD
:101390006CD12046FFF7CEFE5F498DF800005F4A12
:1013A0002B462046FFF742FF5D498DF801005D4A5C
:1013B00001232046FFF73AFF5B498DF802005B4AA4
:1013C0002B462046FFF732FF59498DF80300594A52
:1013D0002B462046FFF72AFF574A58492B468DF8DF
:1013E00004002046FFF722FF8DF80500544800F066
:1013F000F3FCF1280CBF534A4A4A534901232046C3
:10140000FFF714FF51498DF80600514A002320468A
:10141000FFF70CFF4F498DF807004D4A0023204687
:10142000FFF704FF4C498DF80800464A0123204687
:10143000FFF7FCFE49498DF80900494A0023204680
:10144000FFF7F4FE47498DF80A00474A002320467B
:10145000FFF7ECFE334A8DF80B0044492046012388
:10146000FFF7E4FE0D228DF80C000EE0344800F08A
:10147000B3FCF1280CBF334A2A4A204632490123E3
:10148000FFF7D4FE01228DF8000000231DF80310A1
:10149000A9B937491E4805F03DFB2046FFF7DAFCA5
:1014A0002046FFF713FC04F0A7FB2046FFF7D2FC11
:1014B0004FF4FA6005F056FD04F09EFB05E00133A1
:1014C000D9B29142E2D304B070BD2A4805F0F0F9D8
:1014D000002803DD274805F097F9F6E7013E16F0EE
:1014E000FF067FF452AF14222348012103F0B2FA21
:1014F0002249074805F00EFB40F6B83005F032FDF2
:1015000004F07AFB04B0BDE8704004F0A9BB00BF52
:10151000E8130020FEA600081DA7000829A7000860
:1015200032A700082FA700083CA7000848A700081A
:1015300051A700085DA7000871A7000866A700086A
:101540009A1300207EA7000874A7000881A700084E
:101550008BA700088EA7000898A70008A2A700087C
:10156000ABA70008AEA70008B8A70008BBA70008F3
:10157000C5A7000800140020E0130020E2A700081F
:1015800007B5384800F064FB002839D1364B37499D
:101590001870344800F0EDF928B13248334900F0B2
:1015A00028FA002853D1324800F0B1FF20B130486A
:1015B00000F032FF00284FD101238DF800302C4875
:1015C000002369468DF801308DF802308DF8033024
:1015D0008DF8043000F08FFE18B12648264905F03A
:1015E00099FA26480021052203F034FA08E004F0B5
:1015F00003FB282005F074FC40B12148FFF788FA6E
:10160000184800F025FB0028F1D01AE041F288309C
:1016100003F082FB04F0F0FA282005F061FC0028BA
:10162000EBD116484FF4167103F052FA154803F047
:10163000C1FB282005F054FC0028DED104F0DCFAC0
:10164000F7E7094B01221A7003B05DF804FB0E495D
:10165000084805F05FFAA6E70C49064805F05AFA73
:10166000AAE700BF9D13002009000020911300206D
:101670009B130020E81300200EA80008E0130020B0
:101680008E130020E41300202BA800083FA80008B8
:1016900038B5282005F024FC002860D1642003F030
:1016A0003BFB282005F01CFC0446002850D12C48A8
:1016B0004FF4167103F00CFA2A482B4905F02AFA68
:1016C000022C02D80134E4B204E02648264905F091
:1016D00021FA002404F090FA40F6B83003F01CFB25
:1016E00004F08AFA272005F0FBFB0028E8D16420EB
:1016F00003F012FB272005F0F3FB05460028DFD19D
:1017000017484FF4167103F0E3F92946102005F04D
:10171000FDFB262005F080FB1F2005F07DFB134814
:1017200002F0CCFD1F201249022205F057FB2620B3
:101730001049022205F052FB1020012105F0E6FBC2
:10174000272005F0CDFB0028BAD104F055FAF7E7C1
:10175000282005F0C5FB10B904F04EFAF8E738BDB3
:10176000E0130020E81300206EA80008BB1300203F
:10177000F9290008652A000838B53F4B06201A6889
:101780004FF47A7122F0E06242F000721A6004F0C5
:1017900023FA3A484FF4E13105F0E8F84FF41651D6
:1017A0003748FFF77DFA04F08FF9364801F090F9D9
:1017B0000221344801F0D8F9334800F0CBF833481F
:1017C00003F014F904F018FA2D48FFF745FA012147
:1017D0002B48FFF70FFB2E4D4FF4FA6005F0C2FBCC
:1017E00000242C482C70FFF793F901232B7004F090
:1017F00003FA21462248FFF7BBFD274800F076FA9E
:1018000002F07AFFFFF744FF244800F0EFF9FFF7FA
:10181000B7FE2248224900F025FAA8B905221B4844
:10182000012103F017F91F49144805F073F91E4808
:1018300003F0DAFB1748FFF76BF940F6B83003F016
:101840006BFA04F0D9F9E4E718490C4805F062F99D
:1018500002210E480A2203F0FDF804F0CDF9144BE2
:10186000092208481A7002F04FFB04F0C5F9BDE8E0
:10187000384002F05BBF00BF04000140E8130020C5
:1018800090130020BB1300209C130020E0130020C5
:10189000080000208E1300209A1300209D130020C2
:1018A000911300209AA80008E4130020CEA8000895
:1018B000E513002008B5272005F012FBF0B904F06D
:1018C0009BF941F2883003F027FA04F095F92720BC
:1018D00005F006FB58B90A484FF4167103F0F8F802
:1018E0000848094905F016F9084801F027F82720AB
:1018F00005F0F6FA10B904F07FF9F8E708BD00BF6B
:10190000E0130020E8130020E7A800089B13002044
:1019100010B50A4C04F070F90948FFF7F9F82046B1
:1019200001F0CCFB204601F0DFFD204602F058FB21
:1019300002F0BEFFBDE81040FFF7BCBFBB130020A4
:101940008E1300201520012105F0E0BA152000219A
:1019500005F0DCBA10B500210446152005F070FA38
:101960001520012105F0D2FA2046BDE81040FEF70F
:1019700009BC7FB505460E46FFF7E8FF0D24331975
:101980002146284613F80D2C0134FEF72BFC162CAB
:10199000F5D13046092102F0B3FF0646214628461C
:1019A0003246FEF71FFC0D2421462846FEF7ECFBCD
:1019B00001AB23440134162C03F80D0CF4D101A81B
:1019C000092102F09DFFB04203D0FFF7BBFF0020CA
:1019D0000DE028460B21FEF7D7FB552804D02846FA
:1019E0000B215522FEF7FEFBFFF7ACFF012004B0F0
:1019F00070BD7FB505460E46FFF7A8FF17243319C3
:101A00002146284613F8172C0134FEF7EBFB202C57
:101A1000F5D13046092102F073FF064621462846DB
:101A20003246FEF7DFFB172421462846FEF7ACFBC3
:101A300001AB23440134202C03F8170CF4D101A886
:101A4000092102F05DFFB04203D0FFF77BFF0020C9
:101A50000DE028460C21FEF797FB552804D02846B8
:101A60000C215522FEF7BEFBFFF76CFF012004B0EE
:101A700070BDF0B585B001AD06460F462846002181
:101A8000092206F09FFF0D2421463046FEF77CFB1D
:101A90002B190134162C03F80D0CF5D121463046D4
:101AA000FEF772FB09210446284602F029FF844212
:101AB00006D10023EA5CFA540133092BFAD101E084
:101AC000002000E0012005B0F0BDF0B585B001AD0B
:101AD00006460F4628460021092206F073FF172408
:101AE00021463046FEF750FB2B190134202C03F819
:101AF000170CF5D121463046FEF746FB0921044676
:101B0000284602F0FDFE844206D10023EA5CFA5426
:101B10000133092BFAD101E0002000E0012005B0DB
:101B2000F0BD37B50C461E210546FEF72DFB1F21E3
:101B30008DF804002846FEF727FB02218DF80500EA
:101B400001A802F0DDFE207003B030BD10B50B21FE
:101B50000446FEF719FB88B1FFF7F8FE2046002285
:101B60000B21FEF73FFBFFF7EDFE20460B21FEF7B2
:101B70000BFBD0F1010038BF002010BD012010BDCB
:101B800010B50C210446FEF7FFFA88B1FFF7DEFE20
:101B9000204600220C21FEF725FBFFF7D3FE20464E
:101BA0000C21FEF7F1FAD0F1010038BF002010BD82
:101BB000012010BD10B521210446FEF7E5FA552895
:101BC00011D0FFF7C3FE204655222121FEF70AFB64
:101BD000FFF7B8FE20462121FEF7D6FAB0F15503F3
:101BE0005842584110BD012010BD000038B50446D0
:101BF000272005F075F940BB03F0FEFF41F2883065
:101C000005F0B0F903F0F8FF272005F069F9054663
:101C1000D8B90E484FF47A7102F05AFF20462121BC
:101C2000FEF7B2FA40B1FFF791FE204621212A4685
:101C3000FEF7D8FAFFF786FE20462121FEF7A4FA28
:101C4000D0F1010038BF002038BD38BDE0130020BE
:101C500008B52121FEF798FAB0F1550358425841D2
:101C600008BD000038B504460D46FFF702FF20B15D
:101C700020462946FFF729FF40BB20462946FFF7AB
:101C8000F8FE48B11449154804F044FF204629469F
:101C9000BDE83840FFF7ADBE20462946FFF715FFE7
:101CA00048B10F490D4804F035FF20462946BDE8EC
:101CB0003840FFF75EBE0B49084804F02BFF204672
:101CC000FFF744FF2046FFF75BFF03E003480649A8
:101CD00004F020FF012038BD4EA90008E8130020C1
:101CE00085A90008BCA90008D0A9000810B54821A2
:101CF0000446FEF749FA552811D0FFF727FE204683
:101D000055224821FEF76EFAFFF71CFE20464821B7
:101D1000FEF73AFAB0F155035842584110BD012080
:101D200010BD10B54D210446FEF72EFA552810D0EF
:101D3000FFF70CFE204655224D21FEF753FAFFF720
:101D400001FE20460021FEF71FFA003018BF0120D7
:101D500010BD012010BD000037B58DF807101031FF
:101D6000C9B20129044629D84C21FEF70DFA9DF885
:101D70000730834228D002ADFFF7E8FD15F8012DAA
:101D800020464C21FEF72EFA0121284602F0B8FD2C
:101D90004E2102462046FEF725FA20464C21FEF74A
:101DA000F3F99DF80730834205D12046FFF7B9FFCC
:101DB000FFF7C8FD08E0FFF7C5FD03E0044805494B
:101DC00004F0A8FE002000E0012003B030BD00BFF9
:101DD000E813002000AA000837B54C210446FEF79E
:101DE000D3F902AB03F8010D1846012102F088FD7A
:101DF0004E2105462046FEF7C7F9854202D19DF8DF
:101E0000070004E02046F021FFF7A6FFF02003B012
:101E100030BD0000F7B505460E464F242146284642
:101E2000FEF7B2F900AB23440134572C03F84F0CF2
:101E3000F4D10821684602F063FD21460746284692
:101E4000FEF7A2F987420CD100231DF80320F254BB
:101E50000133082BF9D10448044904F05BFE01204A
:101E600000E0002003B0F0BDE813002036AA00080F
:101E700010B558210446FEF787F9552808D0FFF71A
:101E800065FD204658215522FEF7ACF9FFF75AFDB3
:101E900010BD10B558210446FEF776F940B1FFF7A2
:101EA00055FD204658210022FEF79CF9FFF74AFD18
:101EB00010BD0000F7B50F460546FFF747FD384651
:101EC000082102F01DFD4F2406463B1921462846F5
:101ED00013F84F2C0134FEF785F9572CF5D1214624
:101EE00028463246FEF77EF94F2421462846FEF763
:101EF0004BF900AB23440134572C03F84F0CF4D1B9
:101F00006846082102F0FCFC864206D02846FFF70E
:101F1000C0FFFFF717FD002007E00549054804F062
:101F2000F9FD2846FFF7A4FF012003B0F0BD00BF74
:101F30004BAA0008E813002008B55821FEF724F941
:101F4000B0F155035842584108BD10B5262104464A
:101F5000FEF71AF9552811D0FFF7F8FC2046552254
:101F60002621FEF73FF9FFF7EDFC20462621FEF77C
:101F70000BF9B0F155035842584110BD012010BD76
:101F800008B52621FEF700F9B0F155035842584133
:101F900008BD10B526210446FEF7F6F888B1FFF714
:101FA000D5FC204600222621FEF71CF9FFF7CAFCCB
:101FB00020462621FEF7E8F8D0F1010038BF0020C6
:101FC00010BD012010BD37B5C1F307258DF80510F0
:101FD0000F39B1F5E97F04468DF804500ED2272160
:101FE000FEF7D2F885420BD1204628219DF80550F6
:101FF000FEF7CAF8854203D101202EE000202CE034
:10200000FFF7A4FC204627219DF80420FEF7EAF8FC
:102010009DF8052020462821FEF7E4F8022101A8BA
:1020200002F06EFC05462A4620462921FEF7DAF822
:10203000FFF788FC27212046FEF7A6F828218DF817
:1020400004002046FEF7A0F802218DF8050001A843
:1020500002F056FC431B5842584103B030BD13B543
:1020600027210446FEF790F828218DF80400204629
:10207000FEF78AF829218DF805002046FEF784F83E
:102080000221044601A802F03BFC844205BF9DF8F2
:1020900004009DF805304FF6FF7043EA002002B0BF
:1020A00010BD13B564298DF8071028D8012003F05E
:1020B00023FD9DF80730C0B2984222D001389842E3
:1020C0001FD013B901238DF8073001210DF107004E
:1020D00002F016FC044603F003FD01209DF80710F2
:1020E00003F011FD0220214603F00DFD03F0FEFC7C
:1020F000022003F001FD031B5842584102E000207A
:1021000000E0012002B010BD13B5012003F0F4FC83
:1021100002AB03F8010D1846012102F0F1FB044661
:10212000022003F0E9FC844209D19DF80730012B1D
:1021300004BF00238DF807309DF8070000E0FF2062
:1021400002B010BD13B564298DF8071028D80320FC
:1021500003F0D2FC9DF80730C0B2984222D001387B
:1021600098421FD013B901238DF8073001210DF1DA
:10217000070002F0C5FB044603F0B2FC03209DF803
:10218000071003F0C0FC0420214603F0BCFC03F060
:10219000ADFC042003F0B0FC031B5842584102E0A0
:1021A000002000E0012002B010BD13B5032003F0B1
:1021B000A3FC02AB03F8010D1846012102F0A0FBBD
:1021C0000446042003F098FC844209D19DF80730AE
:1021D000012B04BF00238DF807309DF8070000E0B5
:1021E000FF2002B010BD13B564298DF8071028D860
:1021F000052003F081FC9DF80730C0B2984222D040
:10220000013898421FD013B901238DF807300121FE
:102210000DF1070002F074FB044603F061FC052099
:102220009DF8071003F06FFC0620214603F06BFCBD
:1022300003F05CFC062003F05FFC031B584258418E
:1022400002E0002000E0012002B010BD13B505201F
:1022500003F052FC02AB03F8010D1846012102F015
:102260004FFB0446062003F047FC844209D19DF849
:102270000730012B04BF00238DF807309DF80700BD
:1022800000E0FF2002B010BD38B5054603F028FC81
:102290000124204603F030FC50B12046002103F019
:1022A00032FC204603F028FC10B103F01FFC19E0BB
:1022B0000134E4B2072CECD103F018FCFFF746FB25
:1022C000412428462146FDF75FFF68B12846214694
:1022D0000022FDF787FF28462146FDF755FF18B17C
:1022E000FFF730FB002038BD0134472CE9D1FFF760
:1022F00029FB012038BDF8B504460E462F25731979
:102300002046294613F82F7CFDF73EFF874203D174
:102310000135342DF3D136E0FFF718FB2F25731963
:102320002946204613F82F2C0135FDF75BFF342D8D
:10233000F5D10521304602F0E3FA0746294620464A
:102340003A46FDF74FFF2F2520462946FDF71CFF93
:10235000731913F82F3C834217D10135342DF3D173
:1023600020462946FDF710FFB8420ED12046352100
:10237000FDF70AFF552804D0204635215522FDF7E8
:1023800031FFFFF7DFFA0120F8BDFFF7DBFA00208D
:10239000F8BDF7B505460E462F2421462846FDF721
:1023A000F3FE00AB23440134342C03F82F0CF4D19A
:1023B0000521684602F0A4FA214607462846FDF7A3
:1023C000E3FE874207D100231DF80320F2540133B6
:1023D000052BF9D101E0002000E0012003B0F0BDA1
:1023E00073B505462F2421462846FDF7CDFE00ABE8
:1023F00023440134342C03F82F0CF4D16846052112
:1024000002F07EFA214606462846FDF7BDFE331A45
:102410005842584102B070BD38B50546FFF796FAEC
:102420002F2428462146FDF7AFFE68B128462146F5
:102430000022FDF7D7FE28462146FDF7A5FE18B17C
:10244000FFF780FA002038BD0134342CE9D128464A
:102450003521FDF799FE20B1284635210022FDF7F0
:10246000C1FEFFF76FFA012038BD37B50D468DF874
:10247000071036210446FDF787FE85422BD002ADBA
:10248000FFF764FA15F8012D20463621FDF7AAFE64
:102490000121284602F034FA372102462046FDF792
:1024A000A1FE20463621FDF76FFE9DF807308342DE
:1024B0000DD120463821FDF767FE552804D020466F
:1024C00038215522FDF78EFEFFF73CFA03E0FFF7B7
:1024D00039FA002000E0012003B030BD3621FDF7BD
:1024E00053BE37B536210546FDF74EFE02AB03F865
:1024F000010D1846012102F003FA3721044628464F
:10250000FDF742FE231A5842584103B030BD10B5C2
:1025100036210446FDF738FE88B1FFF717FA20464A
:1025200036210022FDF75EFE20463621FDF72CFE07
:1025300018B1FFF707FA002010BDFFF703FA0120DA
:1025400010BDF8B505460E462A2433192846214603
:1025500013F82A7CFDF718FE874215D101342F2C81
:10256000F3D10FE00134052C11D128464721FDF7A6
:102570000BFE552804D0284647215522FDF732FE90
:10258000FFF7E0F90120F8BDFFF7E0F9002404F1BE
:102590002A0728463946325DFDF724FE284639468B
:1025A000FDF7F2FD335D8342DCD0FFF7CBF900206D
:1025B000F8BD10B547210446FDF7E6FD552801D0CA
:1025C000142010BD20462B21FDF7DEFD431EDBB29B
:1025D000632BF5D810BD10B547210446FDF7D4FD97
:1025E000552801D0142010BD20462D21FDF7CCFD2B
:1025F000431EDBB2632BF5D810BD08B52E21FDF7C5
:10260000C3FD431EDBB20A2B28BF032008BD73B5F0
:102610000D4649210446FDF7B7FD4A2106462046EE
:10262000FDF7B2FD40EA06202B1A642B3AD9401B75
:10263000642837D92B0A022101A88DF804308DF8BF
:10264000055002F05DF90546FFF780F92046492163
:102650009DF80420FDF7C6FD20464A219DF805207F
:10266000FDF7C0FD2A4620464B21FDF7BBFDFFF7D5
:1026700069F949212046FDF787FD4A218DF80400BC
:102680002046FDF781FD02218DF8050001A802F02A
:1026900037F94B2105462046FDF776FD431B58428E
:1026A000584100E0012002B070BD73B50D464921CC
:1026B0000446FDF769FD4A218DF804002046FDF728
:1026C00063FD02218DF8050001A802F019F94B21E4
:1026D00006462046FDF758FD86420DD19DF805308F
:1026E0009DF8040043EA002043F2AF63984228605B
:1026F00094BF0020012000E0002002B070BD73B53F
:102700000D4639210446FDF73FFD3A210646204695
:10271000FDF73AFD40EA0620401B642848D96430A2
:10272000642845D92B0A022101A88DF804308DF8C0
:10273000055002F0E5F80546FFF708F92046392173
:102740009DF80420FDF74EFD20463A219DF8052016
:10275000FDF748FD2A4620463B21FDF743FD392180
:102760002046FDF711FD3A218DF804002046FDF7C3
:102770000BFD02218DF8050001A802F0C1F83B21F4
:1027800005462046FDF700FDA8420DD120463C211C
:10279000FDF7FAFC552804D020463C215522FDF7D0
:1027A00021FDFFF7CFF803E0FFF7CCF8002000E0B1
:1027B000012002B070BD73B50D4639210446FDF706
:1027C000E3FC3A218DF804002046FDF7DDFC0221F0
:1027D0008DF8050001A802F093F83B21064620463B
:1027E000FDF7D2FC86420DD19DF804209DF80530FE
:1027F000012043EA0223B3F5967F38BF4FF44873B4
:102800002B6000E0002002B070BD73B50D463D2185
:102810000446FDF7B9FC3E2106462046FDF7B4FC10
:1028200040EA0620401B642848D96430642845D912
:102830002B0A022101A88DF804308DF8055002F012
:102840005FF80546FFF782F820463D219DF80420F9
:10285000FDF7C8FC20463E219DF80520FDF7C2FC8F
:102860002A4620463F21FDF7BDFC3D212046FDF7CD
:102870008BFC3E218DF804002046FDF785FC0221EB
:102880008DF8050001A802F03BF83F2105462046DF
:10289000FDF77AFCA8420DD120464021FDF774FCDB
:1028A000552804D0204640215522FDF79BFCFFF718
:1028B00049F803E0FFF746F8002000E0012002B0ED
:1028C00070BD73B50D463D210446FDF75DFC3E210C
:1028D0008DF804002046FDF757FC02218DF8050015
:1028E00001A802F00DF83F2106462046FDF74CFCFA
:1028F00086420DD19DF804209DF80530012043EA61
:102900000223B3F5967F38BF4FF448732B6000E085
:10291000002002B070BD38B53C210546FDF734FCFF
:10292000402104462846FDF72FFC552C04D1B0F178
:1029300055035842584138BD002038BD10B53C21E0
:102940000446FDF721FC20B920464021FDF71CFC80
:1029500068B1FEF7FBFF20463C210022FDF742FC58
:10296000204640210022FDF73DFCFEF7EBFF012051
:1029700010BD37B53C210446FDF706FC552807D0AD
:1029800020464021FDF700FC55281AD0012030E0F8
:1029900039212046FDF7F8FB3A218DF80400204646
:1029A000FDF7F2FB02218DF8050001A801F0A8FF58
:1029B0003B2105462046FDF7E7FB8542E0D000209D
:1029C00017E03D212046FDF7DFFB3E218DF8040096
:1029D0002046FDF7D9FB02218DF8050001A801F082
:1029E0008FFF3F2105462046FDF7CEFB2B1A5842AC
:1029F000584103B030BD000008B51F2004F00CFAA8
:102A00001F2004F06DFA01280ED142F2107004F07C
:102A1000B7FA1F2004F064FA012815D10E4B0022EA
:102A200018700E4B1A700FE01F2004F059FA58B9B5
:102A300042F2107004F0A4FA1F2004F051FA18B901
:102A4000054B187001F0AEFEBDE808401F20044998
:102A5000022204F0C3B900BFB8130020A013002065
:102A6000F929000808B5262004F0D6F9262004F03C
:102A700037FA01280ED142F2107004F081FA2620B4
:102A800004F02EFA012815D10E4B002218700E4BBF
:102A90001A700FE0262004F023FA58B942F21070A1
:102AA00004F06EFA262004F01BFA18B9054B1870D2
:102AB00001F078FEBDE8084026200449022204F017
:102AC0008DB900BFB9130020A0130020652A0008AB
:102AD00008B50720002104F0B3F92420002104F0F8
:102AE000AFF91020002104F0ABF90620032104F017
:102AF000A7F90420032104F0A3F90520032104F021
:102B00009FF91F20022104F09BF92620022104F0E6
:102B100097F91020012104F0F9F91F200E49022233
:102B200004F05CF902220D49262004F057F91F2019
:102B300004F0D6F90A4B012814BF002218704FF098
:102B4000260018BF1A7004F0CBF9064B012816BFF7
:102B5000002218701A7008BDF9290008652A0008BB
:102B6000B8130020B9130020012908B503D008D2FA
:102B70000720002107E0072004F0C8F924200021E5
:102B800005E00720012104F0C1F924200121BDE85E
:102B9000084004F0BBB9000073B51B480C4616464C
:102BA0001D46FFF7B8FE60B31748FFF7E2FE20B9F5
:102BB0001548FFF7C3FE022024E01348FFF70BFD82
:102BC00004F022FD0022114B04F0AEFE05F064F883
:102BD000206025B901A90C48FFF7EDFD05E0012DA6
:102BE0000BD1094801A9FFF76CFE019805F05AF9CD
:102BF0000146206805F0AEF92060019B002033609B
:102C000000E0032002B070BD9B13002000002440B0
:102C100008B501F0C7FD07480221FFF7A5FF064AE6
:102C200000231370054A1370054A1370BDE808406D
:102C300001F0AABDBB130020AC130020AE1300208E
:102C4000AD1300203F4B2DE9F0411A78884602F081
:102C5000FF04002A72D000221A703B4B1B783BB94C
:102C60003A4B1B7823B93A4B1B7803F0FF053BB175
:102C7000384A137803F0FF0513B1002313700125C0
:102C8000354B1C68B4F5167F34BF002401240DB900
:102C9000002C53D0FFF7BCFF304802210A2201F07C
:102CA000D9FE2F48FFF7F0FA07462E4867B92E499C
:102CB00003F030FF2D4B0A221A702D4839460222AC
:102CC00002F000FA012439E02A4903F023FF2448E6
:102CD000FFF75FF90646234866B9274903F01AFF54
:102CE000224B0A221A7022483146022202F0EAF9E7
:102CF0003C4623E0214903F00DFF2DB1194820493E
:102D000003F008FF052211E094B1B8F1000F05D1DE
:102D100014481C4903F0FEFE022207E0B8F1010F3F
:102D200006D11048184903F0F5FE03220F4B1A7024
:102D30000F480021022202F0C5F934462046BDE8C2
:102D4000F08100BF9F130020AC130020AE130020C1
:102D5000AD130020C0130020B4130020E0130020A6
:102D60009B130020E813002060AA0008E513002050
:102D7000E413002099AA0008D3AA000806AB0008B3
:102D800039AB000864AB00089AAB000870B51F4D62
:102D90000C462B781646002B35D000232B701C4D8B
:102DA000FFF736FF0E231B4802210A222B7001F089
:102DB00051FE24B91849194803F0ACFE21E0012C5A
:102DC00008D11749154803F0A5FE31461548FFF70D
:102DD00068F916E0023C012C13D813490F4803F0A0
:102DE00099FE1048FFF7D5F8044650B90F490B4833
:102DF00003F090FE0A230E48214602222B7002F0B7
:102E000061F9012070BD184670BD00BF8D13002010
:102E1000E5130020E0130020CFAB0008E8130020EA
:102E2000F9AB00089B13002025AC000850AC00084B
:102E3000E41300200000000030B58DB001AD00218A
:102E40002C22284605F0BEFD02F0D6FE0024062006
:102E500004F038F8285104342C2CF8D10B226B469E
:102E60000AACA34207D053F8040F5968884284BFC4
:102E700058601960F5E7013A12F0FF02EFD10798A8
:102E800004F0B2FB08A3D3E9002304F023FC0022E2
:102E9000074B04F01FFC0022064B04F069FA04F013
:102EA000DBFE0DB030BD00BF0000000000C8E93FF0
:102EB000000034400000E03F2DE9F8439846244BE1
:102EC0000E461B78144613B10020BDE8F883214B51
:102ED0001A78002AF8D1204D2B682F46022BF3D9FF
:102EE0001E4B01221A70FFF7A7FF64281C4A2BD83B
:102EF00013680BB93B681360396813680333994250
:102F0000E2D3174B00251D605CB1012C17D1154988
:102F1000154803F0FFFD154B357020461C70BDE8C9
:102F2000F8831148124903F0F5FDB8F1000F01D103
:102F3000642333700D4B01201870BDE8F8830D49F0
:102F4000094803F0E7FDBFE72B681360BCE700BF4B
:102F5000B8130020B9130020B41300209F130020E1
:102F6000C4130020A9AC0008E8130020B01300200F
:102F700082AC0008D2AC0008032BF8B505460C461D
:102F800017462FD0022B2DD0FFF756FF06463846A6
:102F900004F088FF214604F0D5FE0446304604F0D4
:102FA00081FF214605F092F908B90020F8BD2846B6
:102FB000FFF742FF04F076FF214605F087F90A4C3F
:102FC00070B123780133DBB223702378632BECD903
:102FD0000649074803F09EFD002323700120F8BD39
:102FE0002070F8BD1846F8BD9E130020E5AC00081F
:102FF000E813002038B504462548007880B92548F4
:10300000007868B924480568032D054608D9234887
:10301000007838B92248007820B92248007808B9E9
:10302000002038BD2046FFF7A7FF03282ED801A3B4
:1030300053F820F021300008453000086D300008BA
:10304000213000082046FFF7E3FD174B06221A70D7
:1030500016480021022202F035F8154802210A2202
:1030600001F0F8FC00232B60012038BD0E4C2378C2
:103070000A2BD5D00F49104803F04CFD0A230B480A
:1030800000210222237002F01DF8C9E738BD00BFFD
:10309000B8130020B9130020B4130020AC13002093
:1030A000AE130020AD130020E5130020E413002030
:1030B000E013002007AD0008E8130020F8B505462E
:1030C00002F09AFD2A4B1A781E46002A4FD1294B4E
:1030D000294C1A781F462AB9284B1B7803F0FF02A7
:1030E000002B43D01F2003F0FBFE00B938702620D0
:1030F00003F0F6FE08B9214B18702846FFF79CFE36
:10310000632805D8236864200133236001F004FE9E
:10311000226844F24F639A4229D91F2003F07CFEB3
:10312000262003F079FE144B00221A601449012373
:103130001448337003F0EEFC1348FFF7A5F8134C66
:10314000054650B912490F4803F0E4FC0A23114820
:1031500029460222237001F0B5FF102323700D4889
:1031600000210222BDE8F84001F0ACBF2260F8BDAA
:10317000AF130020B8130020A4130020B9130020BF
:103180003BAD0008E81300209B130020E51300204E
:1031900051AD0008E41300202DE9F74388460546A9
:1031A00014461E46FFF734FD02F026FD01F0FAFA40
:1031B000524B01221A70524F524A00234FF47A7038
:1031C0003B60B946136001F0A7FD02F015FD1EB18A
:1031D00024B14D48012103E0002CFAD04A480021D7
:1031E000FFF7C2FC4FF47A7001F096FD02F004FD87
:1031F00001F0DEFA01F0B2FA05E03B68C9F80030F0
:103200003B68072B1BD802F0F7FC2846FFF714FE9B
:1032100063283E4FF1D8D9F8003013B93A68384BDB
:103220001A603A68D9F8003003339A42EBD3344B32
:103230000024374937481C6003F06CFC36E0284610
:10324000FFF7E6FC4FF47A7001F066FD02F0D4FC63
:103250001EB124B12C48002103E0002CFAD02A48EA
:103260000121FFF781FC02F0C7FC01F0A1FA01F097
:1032700075FA4FF47A7001F04FFD11E0C4B10022ED
:1032800041460092019228461346FFF715FE01467B
:1032900050B92846FFF7D6FC40B93B68092B03D844
:1032A00002F0AAFC5EB1E9E7012023E0002021E062
:1032B00000940194284641460122234606E064B169
:1032C000009601962846414601223346FFF7F4FD59
:1032D0000028E9D128460121DCE700940194284622
:1032E000414622462346FFF7E7FD0028DCD1284669
:1032F0002146CFE703B0BDE8F08300BFAC13002048
:10330000BC130020C4130020BB130020B413002002
:1033100085AD0008E81300202DE9F04F634B002530
:103320000126DFF8BC91DFF8BCA187B08B461D7089
:1033300031460723022204465D488AF800308DF8A2
:103340000F5089F8006001F0BDFE5A4803210522A4
:1033500001F080FBBBF1F00F10D15749574803F043
:10336000D9FB04A905AA33462046FFF715FC3146D0
:1033700080465348FFF7F8FB2F4616E0BBF1F10FEC
:1033800012D150494D4803F0C5FB2B4604A905AAAC
:103390002046FFF701FC37462946804648482E461E
:1033A000FFF7E2FB3D4600E02E4601F001FA01F096
:1033B000D5F902F021FCD5B100220092019213460A
:1033C00020460DF10F01FFF777FD024610BB2046A6
:1033D0000221FFF7DBFC08B1012064E020460499DC
:1033E000059A4346FFF706FE80B100205BE06EB110
:1033F0000095019520460DF10F0101222B46FFF7A4
:103400005BFD38B9204603212A46E2E72E48FDF746
:103410007FFBCEE720460DF10F013A460123FFF76F
:10342000BBFE30B32949254803F074FB2046FFF763
:10343000EFFB9DF80F102648FEF733FE9DF80F10A6
:103440002348FEF77FFE01249DF80F102048FEF769
:10345000CAFE2146164802228AF8004001F032FED8
:103460000023144802210A2289F8003001F0F2FA00
:10347000B2E71248174903F04DFB012389F80030E9
:1034800002F0BAFB144B01211970144B19700EB1E4
:10349000204603E0002DF3D020463146FFF7D2FB53
:1034A0000028EDD0A1E707B0BDE8F08F8D13002014
:1034B000E4130020E0130020BFAD0008E813002053
:1034C000BB130020CEAD00088E130020DCAD000839
:1034D0009B130020F4AD00089F130020C0130020B0
:1034E000AD130020E5130020464B2DE9F0411A787A
:1034F00005461E46444C12B9444B1B783BB102F0C2
:103500007BFB4348FEF73CFD08B1237853B1237899
:10351000002B74D03F4A1378904603F0FF07002B2E
:103520006DD114E03B4B1B78002BF0D101F016F964
:10353000354B01221A70337813B1374B1A70E6E716
:10354000324A1278002AE2D0334A1370DFE7334C54
:1035500028462368264601332360FFF76DFC632865
:103560004DD80A2001F0D8FB2846FFF765FC6328F8
:1035700045D8254B1F7033680A2B3BD92448FEF7EA
:103580006EFD274B64241B685C43234BB4FBF0F0B7
:103590001B78C4B21E484BB1FEF7B6FD2044C4B23E
:1035A000642C28BF64241F481F4908E0FEF7ACFDC7
:1035B000001BC4B2652C1B481C4928BF002403F023
:1035C00098FA0A222146174803F030FB214610489A
:1035D000FEF767FD21460E48FEF7B4FD21460C4874
:1035E000FEF701FE124B0F221A7012480021012231
:1035F00001F068FD00233360012388F800300020CB
:10360000BDE8F081B8130020BA130020B9130020E0
:103610009B130020A0130020B1130020A81300204A
:10362000B4130020E813002010AE00082CAE0008F0
:10363000E5130020E413002030B597B000212C22C0
:1036400068460BAD05F0BEF900212C22284605F096
:10365000B9F902F0D1FA0024042003F033FC4DF84C
:103660000400052003F02EFC285104342C2CF3D147
:103670000B22ADF1040309ACA34207D053F8040FA9
:103680005968884284BF58601960F5E7013A12F022
:10369000FF02EED10B220AAB14ACA34207D053F8C1
:1036A000040F5968884284BF58601960F5E7013AF1
:1036B00012F0FF02EFD1069803F096FF10A3D3E9B2
:1036C000002304F007F800220F4B04F003F804462F
:1036D00011980D4603F088FF09A3D3E9002303F0F6
:1036E000F9FF0022084B03F0F5FF02460B46204687
:1036F000294603F03BFE04F087FA17B030BD00BF47
:103700000000000000C8E93F00002640AFF3008041
:10371000F8B51C46114B0D461B6816469B07069FC5
:103720001BD10F4B1B7803B9F8BDFFF785FF206055
:103730002B6801332B602368002B01DA5B42236086
:10374000236843F2B062934203DD3268134433606E
:10375000F8BD3B6801333B60F8BDF8BDB4130020F1
:10376000C11300202DE9F843089F0C6899463B6877
:103770008846E41A13681646B3FBF4F414602CB9B7
:103780001348144903F0C6F925461EE012482146A5
:10379000FEF73DFF054640B9104B0A221A7010484B
:1037A0002946022201F08EFC0FE00E49084803F082
:1037B000A0F9074821460A2203F04BFA00203060A6
:1037C000C8F80000C9F8000038602846BDE8F88352
:1037D000E81300204AAE00089B130020E5130020E8
:1037E000E413002065AE00082DE9F34105460C46C0
:1037F000174602F001FA2846FFF71EFF01A9051E31
:103800005948BABF6D424FF001084FF00008FEF76B
:103810004CFF019E42F21073AE1B46BF764200255C
:1038200001259E4204DD5149514803F073F984E0BB
:10383000B6F5FA7FC0F281804D484E4903F059F940
:103840002046B8F1000F27D06DB1B6F57A6F3EDA99
:1038500003F0CAFE044630460D4603F0D5FE38A3F9
:10386000D3E9002326E0B6F57A6F0ADB03F0BCFE4D
:10387000044630460D4603F0C7FE33A3D3E90023C8
:1038800047E003F0B1FE044630460D4603F0BCFEAF
:103890004FF03332384B3CE025B3B6F57A6F16DB88
:1038A00003F0A2FE044630460D4603F0ADFE28A309
:1038B000D3E9002303F00EFF0022304B04F034F86C
:1038C00002460B462046294603F050FD2DE003F04A
:1038D0008BFE044630460D4603F096FE1EA3D3E948
:1038E0000023E7E7B6F57A6F09DB03F07DFE0446B7
:1038F00030460D4603F088FE0022214B09E003F01C
:1039000073FE044630460D4603F07EFE14A3D3E951
:10391000002303F0DFFE0022184B04F005F80246F6
:103920000B462046294603F023FD04F095F9386044
:1039300039680F480A2203F08CF902B0BDE8F08123
:10394000CDCCCCCCCCCCEC3F9A9999999999F93FB4
:10395000676666666666E63F9A9999999999E93F1E
:103960009A9999999999F13F9B13002088AE000884
:10397000E8130020B3AE00083333F33F00407F402C
:103980000000F83FAFF300802DE9F04F00258FB025
:103990000646A3488DF82B500B95FEF72EFE04909B
:1039A00002F02AF99E48FEF7EBFA0446002800F0E0
:1039B00028829B48FEF7A8FB80469948FEF7F5FB56
:1039C000984B8DF82B0096481D70FEF748FB4FF67C
:1039D000FF7383469B45944815D1944903F09AF8A8
:1039E0008F48FEF751FC044600284CD190498E4880
:1039F00003F090F88F4B0A221A708F48214602225A
:103A000001F060FB51E28D4903F073F80A22414650
:103A1000854803F00BF98A49834803F06AF80A22C3
:103A20009DF82B10804803F001F986497E4803F089
:103A300060F859460A227C4803F00BF902F0DCF8E2
:103A4000B8F1640F7B4F06D89DF82B30642B02D859
:103A5000BBF5F07F19D97C49734803F05BF80A2362
:103A60007548002102223B7001F02CFB6C48FEF7E8
:103A700090FA04466A48FEF707FC04B118B96A4890
:103A8000724903F047F800240FE207236A48012136
:103A900002223B7001F016FB02F0AEF86C4B4FF0C7
:103AA000010A83F800A06B4B1D706B4B1D609DF8E5
:103AB0002B3043450FD898450FD8434510D1304699
:103AC000FFF7A6F85C485146022287F800A054464A
:103AD00001F0F8FAE9E12F4604E05746AA4601E072
:103AE0002F46AA4602F088F8BAF1000F0AD09DF8D6
:103AF0002B303046C8EB03035FFA83F90CA90DAAFB
:103B000000230AE06FB19DF82B303046C3EB080369
:103B10005FFA83F90CA90DAA0123FFF73DF8059080
:103B200000E0B946484603F06FFD3BA3D3E900230C
:103B300003F0D0FD044658460D4603F055FD0246FD
:103B40000B462046294603F0C5FD0022434B03F0F7
:103B50000FFC04F081F8424906900B90324802F0C5
:103B6000C8FF06990A22304803F073F802F044F8BF
:103B7000BAF1000F06D03B480021FEF7F5FF012007
:103B8000079006E02FB137480121FEF7EDFFCDF891
:103B90001CA0032134480A2200F05CFF00F008FE5C
:103BA00000F0DCFD04990A234B4300250993089596
:103BB00004952C4602F020F89DF82B30013B622B37
:103BC0000DD82A4B1A680B9B9A4208D316482849ED
:103BD00002F0A0FFBAF1000F00F00781F6E0BAF1A1
:103BE000000F10D00B9B0DF12B010193CDF800902D
:103BF000304600220123FFF75FF90146002840F01C
:103C0000E580304651E0AFBB184B04981A688242F9
:103C100061D8CBE0AFF300807B14AE47E17A843FFC
:103C20009B130020C0130020E8130020EAAE000818
:103C300051AD0008E5130020E413002018AF000880
:103C400036AF000856AF000877AF0008A0AF0008F5
:103C5000AE1300208D130020C41300200000E03FAD
:103C6000D0AF0008BB130020E0130020B4130020E5
:103C7000FEAF00080B9B01220193CDF80090304667
:103C80000DF12B011346FFF717F960B189498A48F6
:103C900002F02FFF894B884819680A2202F0D9FFE9
:103CA000854887499EE030460121FEF7CBFF00287A
:103CB0007FF4E9AE304601212246FFF767F808B1EC
:103CC0000124F2E030460C990D9A059BFFF792F91A
:103CD000002899D0D7E6196801350491EDB2BAF100
:103CE000000F25D0039301F087FF039B186804F0B1
:103CF000D9F80446584604F0D5F80146204604F0A9
:103D0000DDF9704904F026F90446404604F0CEF887
:103D10000146204604F016F804F0E2FA0A23C4B281
:103D2000B4FBF3F203FB124313F0FF0F2ED02BE092
:103D3000002F33D0039301F05FFF039B40461B68C5
:103D4000039304F0B3F8039B0446184604F0AAF862
:103D500003465846039304F0A5F8039B0146184612
:103D600004F0ACF9574904F0F5F80146204603F099
:103D7000E7FF04F0B5FA0A23C4B2B4FBF3F203FB85
:103D80001243DBB2012B01D1013CE4B221464E4883
:103D9000FEF729FA4C482146FEF783F9022D05D992
:103DA000304606990BAAFFF71FFD0025434B0998E3
:103DB0001A68B2FBF0F100FB112119B91A680898D2
:103DC000824227D14148FCF7A3FEF3E640493A4836
:103DD00002F08FFE394B384819680A2202F039FF89
:103DE00035483C4902F096FE02E0002F7FF44EAFCA
:103DF0009DF82B30ABB1642B13D0374B1B7883B9B4
:103E000037E036492C4802F085FE35492A4802F051
:103E100081FE4AE01B6833480122089301F052F901
:103E2000D0E730460DF12B01079A0123FFF7B4F9D3
:103E300020B12D49204802F06DFE1AE01E482B49A2
:103E400002F068FE2A4B01221A7001F0D5FE294BC0
:103E500001211970284B19700FB1304604E0BAF1F6
:103E6000000FF2D030463946FEF7ECFE0028ECD0C9
:103E700009E63046FEF7CCFE01F0BEFE9DF82B10A1
:103E80001148FEF70EF99DF82B100F48FEF7ABF91D
:103E900001241A4B1348214602221C7001F012F92A
:103EA000174802210A2200F0D5FD20460FB0BDE8D8
:103EB000F08F00BF19B00008E8130020B4130020F1
:103EC0003EB000080000C8429B1300208E13002063
:103ED00065B000088CB00008B0130020ECB00008FA
:103EE0000FB10008E4130020B4B00008CEB0000801
:103EF000AE1300209F130020C0130020E513002004
:103F0000E0130020AFF3008070B5064601F074FEA8
:103F10002C48FEF74AF92C4905462C4802F0E9FDE9
:103F20000A222946294802F081FE2648FEF78EF92A
:103F300027490446254802F0DCFD0A222348214691
:103F400002F074FE0A23B4FBF3F203FB124313F0F6
:103F5000FF0F08D0AC4203D9631B052B2ADD04E018
:103F60002B1B052B26DDAC422AD021461548FEF737
:103F700098F829461348FEF7E5F8262002F04CFF92
:103F80001F2002F049FF0021102002F0BFFF304641
:103F9000FFF7FAFC1F200F49022202F01FFF262024
:103FA0000D49022202F01AFFBDE8704010200121E5
:103FB00002F0ACBF05480949BDE8704002F0AABD57
:103FC00070BD00BF9B1300205AB10008E813002009
:103FD0007FB10008F9290008652A0008A5B100088A
:103FE00038B5264B05461A78002A45D000222448C9
:103FF00024491A7002F08EFD234B1B7813B1204820
:10400000224935E0224C2378FBB9224B1B78E3B9D7
:10401000262002F001FF1F2002F0FEFE00211020EA
:1040200002F074FF2846FFF7AFFC1F201A49022256
:1040300002F0D4FE26201949022202F0CFFEBDE88C
:1040400038401020012102F061BF1F2002F048FF1C
:1040500000B92070262002F043FF08B90D4A107005
:1040600023781BB90B4B1B78002BD1D004480C498B
:10407000BDE8384002F04EBD38BD00BFB01300208F
:10408000E8130020CDB10008AF13002056A20008AD
:10409000B8130020B9130020F9290008652A000888
:1040A00039A40008F8B51F460F4B15461B680C468F
:1040B00013F00302069E16D10C4B197801B9F8BD16
:1040C0001A70FEF7B9FE38602368013323603B683D
:1040D000B3F5967F03D92A6813442B60F8BD336883
:1040E00001333360F8BDF8BDB4130020C1130020C4
:1040F0002DE9FF4799469DF834301446012B4FF0C7
:1041000000020E460C9F039220D103A96048FEF7DF
:1041100052FB039B40F6B732591E914288BF4FF4C1
:10412000487323605A482168FEF76FFB0546002854
:1041300067D15849584802F0EDFC584B0A221A70D2
:1041400057482946022200F0BDFF8EE03A680D680C
:10415000AD1A2268B2FBF5F525602DB94E485149DC
:1041600002F0D8FC28468FE0002B40F081804848C0
:104170002946FEF7C4FA80464748B8F1000F0BD134
:10418000494902F0C7FC454B0A221A70444841468F
:10419000022200F097FF32E0444902F0AAFC0A2212
:1041A00021683D4802F055FD3948FEF714FA03F046
:1041B0002BFA00223E4B03F0B7FB03F06DFD3D49A7
:1041C0000546354802F095FC284603F02FFA4FF0DB
:1041D000020A02460B46CDF800A02F4802F0F0FD7F
:1041E000206803F05FFE294603F0B4FE03F01EFAD8
:1041F000CDF800A002460B46274802F0E1FD01255C
:1042000038E02D49244802F074FC0A222168224833
:1042100002F01FFD1E48FEF7DEF903F0F5F900225B
:10422000234B03F081FB03F037FD224980461A48F7
:1042300002F05FFC404603F0F9F94FF0020A024633
:104240000B46CDF800A0144802F0BAFD206803F038
:1042500029FE414603F07EFE03F0E8F9CDF800A008
:1042600002460B460C4802F0ABFD4FF0010801E09E
:104270000125A84600239845236014BF2846184608
:104280003360C9F800303B6004B0BDE8F08700BF80
:104290009B1300207EB20008E8130020E5130020E5
:1042A000E4130020EFB100080AB200084AB2000887
:1042B0000000244067B20008C0B200082DE9F04FAA
:1042C0009B498FB000269B4D04469B488DF80F609C
:1042D00004960696079608960A960B9602F01AFC24
:1042E0000B239648012102222B7000F0EBFE01F017
:1042F00083FC934B93481E70934BAA461E60FDF7B8
:1043000048FE074630B98C48904902F003FC0A2366
:104310002B705AE0DFF860828D48032114220125BA
:1043200088F8005000F096FB0CA90DAA33462046F1
:10433000FEF732FC81468348FDF737FF59284AD9FA
:104340008048FDF732FF642840F2938143E0814BBF
:104350001A68D20702D51A6801321A60D3F80090A1
:1043600020460DF10F0132460023FEF715FF00280D
:1043700000F069817849704802F0CCFB2046FEF7D6
:1043800047FC07AB0093204605AB06A904AAFFF73C
:10439000E9F90BAB0093002D00F027810023019376
:1043A0000AA908AA09AB2046FFF7A2FE65484946BC
:1043B000FDF709FE07466048002F40F01881674965
:1043C00002F0A8FB0A238AF800305C483946022232
:1043D00000F078FE52E162480021FEF7C5FB00259F
:1043E000012600F0BBF900F0E3F901F005FC8DB106
:1043F00000230093019320460DF10F010122FEF7E7
:104400005BFD00282FD120460121FEF71BFC70B177
:10441000002733E10095019520460DF10F012A4652
:104420002B46FEF749FDF0B920462946EDE7204628
:104430000C990D9A4B46FEF7DDFD0028E8D10021CE
:1044400020460A46FEF7A2FC002840F017810BAB7D
:10445000009320460AA908AA09ABFFF723FE4148AA
:10446000FCF756FBC1E720460DF10F013246012350
:10447000FEF792FE60B338492F4802F04BFB20460E
:10448000FEF7C6FB0BAB009315B10123019300E0CF
:10449000019508AA09AB0AA92046FFF729FE4FF0AB
:1044A00001093149244888F8009002F033FB4FF4A9
:1044B0007A7000F031FC01F09FFB20460CA90DAA98
:1044C0004B46FEF769FB83462548BDB1002116E047
:1044D0001948264902F01EFB012388F8003001F03C
:1044E0008BFB234B01211970224B2046197005B913
:1044F0002946FEF7A7FB0028F1D089E74946FEF7D9
:1045000033FB00F02BF900F053F901F075FBADB36C
:1045100000220DF10F010092019220461346FEF792
:10452000CBFC014600287FF412AF204634E000BFE8
:10453000DFB20008E5130020E8130020E413002098
:104540008D1300209B130020C41300200AB3000821
:10455000E0130020B41300203FB3000896B3000816
:10456000BB1300208E13002069B3000852B300086B
:104570009F130020C0130020AC130020009501956C
:1045800020460DF10F0101222B46FEF795FC002875
:104590007FF4DDAE20460121FEF754FB00287FF4B6
:1045A00037AF20460C990D9A5B46FEF723FD002895
:1045B0007FF42EAF002120460A46FEF7E7FB0028D5
:1045C0005CD107AB0093204606A904AA05ABFFF710
:1045D0009FF80BAB009320460AA908AA09ABFFF786
:1045E00061FD2848FCF794FA8FE70123D7E62649B6
:1045F00002F07FFA0A224946244802F02AFB2449A5
:10460000224802F087FA9DF80F102248FDF749FD75
:104610009DF80F101F48FDF795FD9DF80F101D48E0
:10462000FDF7E1FD1B48FDF790FC0C231A48012122
:1046300002228AF8003000F045FD184802210A22C3
:1046400000F008FA1AE01148154902F063FA012354
:1046500088F8003001F0D0FA124B01211970124B8A
:104660002046197005B10021FEF7ECFA0028F1D0C0
:10467000CEE60E482946FEF777FAB2E638460FB086
:10468000BDE8F08F8E130020C5B30008E8130020AA
:10469000EFB300089B130020E4130020E013002078
:1046A00052B300089F130020C0130020BB1300204A
:1046B0000148112100F0A9BEC8130020034B1A685D
:1046C00001321A60024B01221A707047B4130020A5
:1046D000C1130020064B1A6801321A601A68B2F53D
:1046E000615F04D300221A60024B01221A707047E6
:1046F000CC130020D113002010B5094C09492046E5
:1047000002F07DF920460121074A02F097F9204680
:10471000002102F06BF92046BDE8104002F050B9CC
:10472000E014002040420F00BD46000810B5084CC0
:104730000849204602F063F920460121064A02F0AA
:104740007DF920460021BDE8104002F04FB900BFBE
:10475000E414002040420F00D546000810B5074B76
:104760000021074C1960074B2046197002F03EF9F2
:104770002046BDE8104002F02BB900BFB413002062
:10478000E0140020C113002010B5054C204602F0B3
:104790001FF920460021BDE8104002F027B900BFF4
:1047A000E4140020014802F00BB900BFE01400201F
:1047B000014802F005B900BFE414002001480021BF
:1047C000FCF7D6BD901300201FB5304801A9FDF7B6
:1047D00049FA2F4CC0B92F492F4802F09BF92F48B6
:1047E00000F002FC2E48FCF793F940F6B83002F0D6
:1047F000B9FB01F001FA23780133DBB2322B2370CD
:10480000E3D901F02DFAE0E7002323702548FDF7F6
:10481000E7FDC0B92449204802F07CF91F4800F0A8
:1048200075FB1F48FCF774F940F6B83002F09AFBAC
:1048300001F0E2F923780133DBB2322B2370E5D9A2
:1048400001F00EFAE2E7002323701648FDF749FE57
:10485000C0B91649104802F05DF9104800F0C4FBD9
:104860000F48FCF755F940F6B83002F07BFB01F039
:10487000C3F923780133DBB2322B2370E5D901F081
:10488000EFF9E2E70023237004B010BD9D13002070
:10489000D01300201EB40008E8130020E413002009
:1048A0008E1300209B1300206CB40008C4B40008D1
:1048B00008B50F4B1A78CAB100221A70FFF778FFBB
:1048C0000C480121052200F0C5F8FFF777FFFFF73C
:1048D0007BFFFFF759FF074802210A2200F0BAF8D0
:1048E000BDE808400448054902F014B908BD00BFFE
:1048F000D1130020E0130020E81300201AB50008AF
:10490000002330B5054618468B420FDAEA5C50406A
:10491000082210F0010F4FEA60041ABF84F0E00093
:10492000C0B2E0B2013AF4D10133EDE730BD00008E
:1049300008B52A4B2A491A68096801328A421A6066
:104940004AD300221A60274A1378DB43DBB2137084
:10495000254A1278032A3FD8DFE802F00B29021C0F
:1049600022200BB9012100E0002102F0CFFA232020
:1049700007E023200BB9012100E0002102F0C6FA74
:104980002220002102F0C2FA2020002102F0BEFA0B
:1049900021201CE020200BB9012100E0002102F0C1
:1049A000B5FA2220002102F0B1FA2320EDE7212000
:1049B0000BB9012100E0002102F0A8FA2220002119
:1049C00002F0A4FA2320002102F0A0FA2020002106
:1049D000BDE8084002F09ABA08BD00BFD413002019
:1049E000DC130020D8130020D913002008B525209F
:1049F000002102F025FA2220002102F021FA2320D2
:104A0000002102F01DFA2020002102F019FA2120D5
:104A1000002102F015FA2820022102F011FA2720C5
:104A2000022102F00DFA2220002102F06FFA20206C
:104A3000002102F06BFA2320002102F067FA212006
:104A4000002102F063FABDE808402520012102F0B0
:104A50005DBA000010B50A4B0A4C19700A4B20468B
:104A60000A491A6001F0CBFF20460121084A01F0F3
:104A7000E5FF20460021BDE8104001F0B7BF00BFB0
:104A8000D9130020E8140020DC130020A0860100C8
:104A90003149000808B50A4801F092FF22200021A0
:104AA00002F034FA2020002102F030FA2320002105
:104AB00002F02CFABDE808402120002102F026BABD
:104AC000E8140020014801F083BF00BFE814002073
:104AD00038B50D460024AC4210D00021252002F04C
:104AE00015FA4FF4FA7002F04BFA2520012102F07A
:104AF0000DFAC82002F044FA0134ECE738BD08B5DD
:104B00001620002102F09CF91720002102F098F9EC
:104B10001620012102F0FAF9BDE808401720012112
:104B200002F0F4B91720002102F08AB917200421FD
:104B300002F086B908B5FFF7F5FF1720012102F052
:104B4000E5F90121162002F0E1F9052002F018FA3A
:104B50000021172002F0DAF9062002F011FABDE870
:104B600008401620002102F0D1B908B5FFF7DAFF9E
:104B70001620002102F0CAF91720002102F0C6F920
:104B80000121162002F0C2F9062002F0F9F91720DF
:104B9000012102F0BBF9BDE80840062002F0F0B99F
:104BA00010B500210446162002F0B0F92046FFF7A8
:104BB000B9FF0021172002F0A9F9022002F0E0F964
:104BC0000121162002F0A2F9052002F0D9F9BDE872
:104BD00010401620002102F099B910B500210446BA
:104BE000162002F093F92046FFF79CFF01211720C1
:104BF00002F08CF9022002F0C3F90121162002F024
:104C000085F9052002F0BCF9BDE81040162000210E
:104C100002F07CB970B50646FFF788FF0121172026
:104C200002F074F9012002F0ABF91620012102F024
:104C30006DF9012002F0A4F9FB25172002F050F9CC
:104C4000044640B1013D15F0FF05F6D13046FFF7AF
:104C50008CFF012070BD1620214602F057F9204636
:104C600070BD38B50C46FFF75DFF1620002102F03D
:104C70004DF9082524F07F0303F0FF01172003B14D
:104C8000012102F043F90121162002F03FF9022030
:104C900002F076F91620002102F038F9013D0220D9
:104CA000640002F06DF915F0FF05E4B2E2D138BD01
:104CB000F8B505460F46FFF739FF08260024002106
:104CC000162002F023F9022002F05AF916200121E1
:104CD00002F01CF964001720E4B202F001F908B1F7
:104CE0000134E4B20120013E02F04AF916F0FF0659
:104CF000E5D1284617B9FFF770FF01E0FFF750FF35
:104D00002046F8BD01F00F03090901EB810103EB17
:104D10004100C0B270470000074A30B5136815461D
:104D20002C6819188C42044A04D81168994238BF7B
:104D30001368F5E730BD00BF8415002037B50C4679
:104D40000C480DF10701FCF7ECFE9DF807304FF41D
:104D50007A705843084902F0FAF89DF80730054682
:104D600064205843054902F0F2F82844206003B05B
:104D700030BD00BF9D13002060E31600400D03000E
:104D800070B50E4615460024E3B2AB42074809D27F
:104D9000315D102201F041FF0448054901F0A9FEF0
:104DA0000134F1E7BDE8704001F0A8BEE81300202F
:104DB000DDB2000830B595B040220546002104A8B8
:104DC00003F000FE002314A941F8503D284669462F
:104DD000FFF7B4FF009802F0D3F800F00DFFFE23B8
:104DE0008DF81030E0238DF8113011238DF812303A
:104DF00024238DF81330C0238DF8143001238DF84F
:104E000015303B4B1B7803B155233A488DF81630CB
:104E1000FDF764FB01AC8DF8170021463548FDF71E
:104E2000B8FA002304AA1A44E15C0133052B11727D
:104E3000F8D131482146FCF71CFE002304AA1A448D
:104E4000E15C0133092B5173F8D10024012305A83B
:104E500024218DF826308DF827408DF828408DF8D4
:104E600029408DF82A408DF82B408DF82C408DF884
:104E70002D408DF82E408DF82F408DF830408DF864
:104E800031408DF832408DF833408DF834408DF844
:104E900035408DF836408DF83740FFF731FD8DF8FD
:104EA0003800E30704AB234404F1010454BF0D228E
:104EB0000A22062C83F82920F3D11049104801F06A
:104EC00029FE04A928462F22FFF75AFF0D48FFF7B5
:104ED000E1FD0D4804A903682F229B689847C8206C
:104EE00002F040F80748FFF7EDFD15B030BD00BFF8
:104EF0008C1300209B1300209D13002052B5000846
:104F0000E8130020E01300200014002010B586B044
:104F100014220446002101A803F054FD002306A931
:104F200041F8183D20466946FFF708FF009802F057
:104F300027F800F061FEFE238DF80430E0238DF8A1
:104F4000053012238DF8063005238DF80730C02375
:104F50008DF8083001238DF809301D4B1B7803B103
:104F600055231C488DF80A30FDF7B8FA01238DF857
:104F70000B00052102A88DF80C30FFF7C1FC0023BF
:104F80008DF80D00DA0701AA1A4403F1010354BF9A
:104F90000D210A21062B9172F4D10F490F4801F01F
:104FA000B9FD01A920461022FFF7EAFE0C48FFF7E1
:104FB00071FD0C4801A9036810229B689847C8201E
:104FC00001F0D0FF0648FFF77DFD06B010BD00BF21
:104FD0008C1300209B1300206EB50008E8130020FE
:104FE000E01300200014002010B586B014220446FF
:104FF000002101A803F0E6FC002306A941F8183DB2
:1050000020466946FFF79AFE009801F0B9FF00F0CC
:10501000F3FDFE238DF80430E0238DF805301323D3
:105020008DF8063005238DF80730C0238DF8083041
:1050300001238DF809301D4B1B7803B155231C4803
:105040008DF80A30FDF74AFA01238DF80B0005218F
:1050500002A88DF80C30FFF753FC00238DF80D00EB
:10506000DA0701AA1A4403F1010354BF0D210A21F2
:10507000062B9172F4D10F490F4801F04BFD01A9A5
:1050800020461022FFF77CFE0C48FFF703FD0C487A
:1050900001A9036810229B689847C82001F062FFAD
:1050A0000648FFF70FFD06B010BD00BF8C130020AF
:1050B0009B1300206EB50008E8130020E0130020C9
:1050C0000014002070B592B00C460546164602A8A2
:1050D0000021402203F076FC0023019300F08CFDB8
:1050E00034B1284601A9FFF729FE019801F048FFD5
:1050F00000F082FDFE238DF80830E0238DF80930A2
:1051000014238DF80A301A238DF80B30C0238DF844
:105110000C3001238DF80D304B4B1B7803B1552318
:105120004A488DF80E30FDF7D9F901238DF810307B
:10513000474B8DF80F001B7846488DF81130FEF76D
:105140007BFA454C0028B8BF4042031221788DF805
:10515000130042488DF81230FFF7D4FD61788DF8C6
:1051600014003E48FFF7CEFD8DF815003748FDF7D7
:105170006DF88DF816003548FDF71BFA00248DF800
:10518000180032488DF81740FDF725FA8DF81A00FF
:1051900030488DF81940FDF74FFE030A8DF81C00CA
:1051A0002A488DF81B30FDF728FA01462B48FFF7F7
:1051B000A9FD8DF81D002A48FCF70EFE14238DF87A
:1051C0001E008DF81F3003A853231A218DF82030BC
:1051D0008DF821408DF822408DF823408DF8244031
:1051E0008DF82540FFF78CFB8DF82600E30702AB16
:1051F000234404F1010454BF0D220A22062CDA775D
:10520000F4D11849184801F085FC284602A9252246
:10521000FFF7B6FD0024E3B2B34212D200F0ECFC7B
:105220001248FFF737FC124802A9036825229B6841
:105230009847104801F0A4FE0C48FFF743FC0134E6
:10524000E9E712B070BD00BF8C1300209B13002053
:10525000E5130020BB130020E2130020E11300201F
:105260009A13002094B50008E8130020E0130020F2
:1052700000140020400D03002DE9F0418AB00546DE
:10528000884617460021192203A803F09BFB00263D
:105290000AA941F8206D2846404CFFF74FFD0298BF
:1052A00001F06EFE00F0A8FC23780BB1637833B9EF
:1052B00000963B48394901223A4BFBF7E3FEFE23B7
:1052C0008DF80C30E0238DF80D3015238DF80E305D
:1052D0000E238DF80F30C0238DF8103001238DF888
:1052E0001130314B1B7803B1552330488DF8123003
:1052F000FDF7F4F8012321788DF813002C488DF880
:1053000014308DF81580FFF7FDFC61788DF81600DC
:105310002748FFF7F7FC00248DF817000E2104A89A
:105320008DF818408DF819408DF81A408DF81B4003
:105330008DF81C408DF81D40FFF7E2FA8DF81E0035
:10534000E30703AB234404F1010454BF0D220A22F6
:10535000062CDA74F4D11749174801F0DBFB284614
:1053600003A91922FFF70CFD1448FFF793FB002453
:10537000E3B2BB420CD200F03FFC114803A9036822
:1053800019229B689847C82001F0ECFD0134EFE733
:105390000A48FFF797FB0AB0BDE8F081E21300204E
:1053A00090130020AEB500088C1300209B13002042
:1053B000E1130020B8B50008E8130020E013002036
:1053C00000140020122938B50546144608460BD0B3
:1053D000132910D0112916D100F06CF80CB1204619
:1053E0000FE047F6FF700CE000F064F8002CF6D1F7
:1053F00049F63F4005E000F05DF8002CEFD14FF298
:10540000234000F0DFF8284638BD13B500220446DB
:1054100001A8FFF7D7FF204602B010BD054B1B685F
:105420001B685B0103F1844394331A68002AFCD0A3
:10543000704700BF0C000020054B1B681B685B0118
:1054400003F184438C331A68002AFCD0704700BFF4
:105450000C00002008B5FFF7E1FF054B00221B6898
:105460001B685B0103F18443C3F88C2008BD00BFB7
:105470000C00002008B5FFF7D1FF054B01221B6887
:105480001B685B0103F18443C3F8902008BD00BF93
:105490000C00002008B5FFF7C1FF054B00221B6878
:1054A0001B685B0103F18443C3F8902008BD00BF73
:1054B0000C00002010B5044600F006FB00F010FBC5
:1054C000204A112C136A23F44073136213460BD045
:1054D00005D8C4B1102C2AD10023136227E0122C66
:1054E00011D0132C1AD022E0174A0021116001219B
:1054F00042F8081C154A126812F0FF0FFAD01A6A17
:1055000042F4807212E0124A01211160114A1268BD
:10551000002AFBD01A6A42F4007207E00E4A1268B1
:1055200012F0FF0FFAD01A6A42F440721A620B4B63
:1055300001221A60FFF78EFFFFF77EFFBDE81040E3
:10554000FFF76CBF001002400804424204044242CC
:105550008004424284044242440042423C044242AB
:10556000F8B5104B1E6835682B686F681F4017F040
:10557000010403D074680CB1A0470124BA0704D514
:10558000B36813B1984744F002047B0704D5F3686D
:1055900013B1984744F004046B6823EA04046C6078
:1055A000F8BD00BF0C00002008B5044B1B681B6948
:1055B0001BB19847024B01221A6008BD0C00002065
:1055C000C482204210B50446FFF744FFFFF734FFC2
:1055D000FFF724FFFFF74EFF064B220C1B68A4B217
:1055E0001B689A60DC60FFF755FFBDE81040FFF7CD
:1055F00015BF00BF0C00002001498D460149084736
:1056000000C000200956000808B5124B124A19685C
:10561000914201D0002301E0104B07E01048D4185C
:105620008442F9D2C858D0500433F7E70D4A934268
:1056300003D2002243F8042BF8E703F09BF9002083
:105640000146024601F0F6FB074B0BB103F082F96D
:10565000FEE700BFD8BA000800000020F0120020CA
:10566000F01200208815002055890008FEE7000090
:10567000124B10B5196809220A23114801F02CF9C0
:10568000104B022219681048032301F025F90F4B33
:105690001A2219680E481B2301F01EF90D4B2A220D
:1056A00019680D482B2301F017F9BDE810400B4B8A
:1056B0000B4819682C22322301F00EB9C8010020D2
:1056C000E8130020CC01002000140020D0010020AD
:1056D00018140020B80E002030140020BC0E00204A
:1056E0004814002010B5044600F0BEF9034B2046D4
:1056F0001978BDE8104000F017B900BF280000205D
:10570000F8B50446056800F0D3FB22680023510178
:1057100001F184410B60802129600121A9622B6184
:10572000EB606379696113B18B4203D02BE04FF4D6
:1057300000436B644FF6FF73D36200256E1CF7B213
:105740002046394600F0BEFBD0B1236848F6FF7111
:1057500003F1340242F8251018336D1017F0010FD1
:1057600053F8252014BF6FF0FF016FF47F4101EA69
:10577000020214BF68214FF4D0410A4343F82520A8
:10578000042E3546DAD1216801224B01490103F18B
:10579000844301F18441C3F880220A60F8BD704758
:1057A00038B5274B274C1A68022042F010021A60C5
:1057B00000F0B0F90025002000F076FA656023685B
:1057C000182023F40023236000F07BFA102000F05F
:1057D00078FA00F043F8A560102000F065FA102078
:1057E00000F08CFA0028FAD000F039F8164800F0E2
:1057F00091FA182000F058FA182000F07FFA0028DB
:10580000FAD0022000F040FA00214FF0006000F0D2
:105810000FFA0E4800F0F4FA00F038F80C4B188834
:1058200000F00CF90B4800F00DF90B4800F01CFBE0
:1058300000F02EF800F02DF8FFF7B1FF38BD00BFE3
:1058400000200240001002402C0000203F190100FF
:105850002A000020E556000801570008704708B5E7
:105860000020014600F0A4FA01204FF4806100F00E
:105870009FFA0021022000F09BFA2D2000F0A8FAE8
:10588000BDE808400320002100F092BA00F04CB9B6
:10589000704700F097B90000000000000000000011
:1058A000012007E0022005E0032003E0042001E0DE
:1058B0000520FFE70D4A0121116072B60C4A002154
:1058C0001160074902B4084902B486B005498E4602
:1058D000704700BFAFF30080AFF30080AFF30080EC
:1058E00000000061F9FFFFFF9167000814ED00E080
:1058F00010E000E0AFF30080AFF30080AFF3008072
:10590000FEE710B50446007900F020FA2079BDE8E2
:10591000104000F033BA03689A6822F4602242F41F
:105920008012114399607047002370B51A461C46D7
:10593000072B4FEA430503DCEE1801FA06F6344361
:105940001D4401FA05F501330A2B42EA0502EFD1A5
:105950000368DC601A6170BD0368DA6A22F0F872CD
:10596000DA6259639A6842F480029A601A68920770
:10597000FCD5D86C80B2704738B5124D2A681368D0
:105980001C68A10706D5196821F002011960936807
:1059900003B19847620708D52B681A681B6911681C
:1059A00021F00401116003B19847E30708D52B6883
:1059B0001A68DB68116821F00101116003B1984792
:1059C00038BD00BF7000002038B5124D2A6813683A
:1059D0001C68A10706D5196821F0020119609368B7
:1059E00003B19847620708D52B681A681B691168CC
:1059F00021F00401116003B19847E30708D52B6833
:105A00001A68DB68116821F00101116003B1984741
:105A100038BD00BF74000020036801225B0103F160
:105A2000844303F58673191F1A6018680028FCD197
:105A300043F8042C0B68002BFCD17047014604206E
:105A400000F0B6B9054B10B504461868A047044BE2
:105A50001868A047034B1868A04710BD70000020CD
:105A60006C0000207400002010B50446FFF749FFC9
:105A700020464FF46021FFF74EFF2368012103F118
:105A8000404308335A015B0102F1844203F184432D
:105A9000116520461960BDE81040FFF7BDBF00004A
:105AA000431E292B0BD80A2805D8800000F180401E
:105AB00000F5D84070478300024818447047002022
:105AC000704700BF146C004008B5142000F03EF988
:105AD000042000F03BF9BDE80840042000F04EB976
