:020000040800F2
:1000000000C00020A9590008215A0008255A0008FC
:10001000295A00082D5A0008315A0008815A000850
:10002000815A0008815A0008815A0008815A000844
:10003000815A0008815A0008815A0008915F00081F
:10004000815A0008815A0008815A0008E9560008C0
:10005000815A0008815A0008197200083972000894
:10006000597200087972000899720008815A0008D4
:10007000815A0008815A0008815A0008815A0008F4
:10008000815A0008815A0008F95A0008815A00086C
:10009000815A0008815A0008815A0008B972000884
:1000A0001D62000841620008656200089D62000848
:1000B000F162000861630008D1630008815A0008FA
:1000C000815A0008815A0008815A0008815A0008A4
:1000D000815A0008C96600081D670008716700089A
:1000E000FD72000831570008815A0008F9640008C1
:1000F0001D6500084165000879650008495B000836
:10010000815A0008815A000841640008815A000899
:10011000C567000819680008B1640008D5640008C4
:10012000815A0008815A0008815A0008815A000843
:1001300010B5054C237833B9044B13B10448AFF321
:1001400000800123237010BDF01200200000000089
:10015000088E000808B5064B1BB106480649AFF3E8
:1001600000800648036813B1054B03B1984708BDEA
:1001700000000000088E0008F4120020F012002099
:100180000000000007B53A4801F0FCFF002839D113
:10019000384B39491870364801F085FE28B134488B
:1001A000354901F0C0FE002853D1344802F049FC23
:1001B00020B1324802F0CAFB00284FD101238DF84C
:1001C00000302E48002369468DF801308DF802304A
:1001D0008DF803308DF8043002F027FB18B1284861
:1001E000284906F089FD28480021052201F02EF853
:1001F00008E005F0C1FD282006F0F2FE40B12348DA
:1002000000F0E0FE1A4801F0BDFF0028F1D01AE02E
:1002100041F2883004F08AFD05F0AEFD282006F09A
:10022000DFFE0028EBD118484FF4167101F04CF8AE
:10023000174804F0C9FD282006F0D2FE0028DED1C0
:1002400005F09AFDF7E70B4B01221A7003B05DF839
:1002500004FB10490A4806F04FFDA6E70E4908487E
:1002600006F04AFD0D49064806F046FDA6E700BF28
:10027000AD130020090000200C130020AB13002058
:10028000E813002038A10008A813002097130020CD
:10029000E313002066A1000888A10008B7A10008A8
:1002A00038B5282006F09CFE002868D1642004F0B0
:1002B0003DFD282006F094FE0446002858D1304821
:1002C0004FF4167101F000F82E492F4806F014FD86
:1002D0002D482E4906F010FD022C02D80134E4B25C
:1002E00008E02849284806F007FD2748274906F076
:1002F00003FD002405F040FD40F6B83004F016FD83
:1003000005F03AFD272006F06BFE0028E4D16420BA
:1003100004F00CFD272006F063FE05460028DBD123
:1003200017484FF4167100F0CFFF2946102006F051
:100330006DFE262006F046FB1F2006F043FB144806
:1003400004F068FA1F201349022206F01DFB262044
:100350001149022206F018FB1020012106F056FE7A
:10036000272006F03DFE0028B6D105F005FDF7E791
:10037000282006F035FE10B905F0FEFCF8E738BD80
:10038000A8130020D3A10008E8130020FFA1000853
:10039000CB1300202D2F0008992F000838B5414BB2
:1003A00006201A684FF47A7122F0E06242F000727F
:1003B0001A6005F0D1FC3C484FF4E13106F0C0FB77
:1003C0004FF41651394801F0BDF805F03DFC3848AE
:1003D00002F018FE0221364802F060FE354801F0B6
:1003E00053FD354800F0FEFE05F0C6FC2F4801F035
:1003F00085F801212D4801F04FF9304D4FF4FA6096
:1004000006F030FE00242E482C7000F0DBFD0123A6
:100410002B7005F0B1FC2146244801F019FC294855
:1004200001F0FEFE04F016FCFFF73AFF264801F04B
:1004300077FEFFF7A7FE2448244901F0ADFEC8B9B6
:1004400005221D48012100F001FF2149164806F050
:1004500053FC2049144806F04FFC1F4804F0CEFD21
:10046000174800F0AFFD40F6B83004F05FFC05F02F
:1004700083FCE0E719490C4806F03EFC02210E48D7
:100480000A2200F0E3FE05F077FC154B092208482C
:100490001A7003F0E5FF05F06FFCBDE8384004F08A
:1004A000F3BB00BF04000140E8130020A9130020A3
:1004B000CB130020AC130020A8130020080000205C
:1004C00097130020AA130020AD1300200C13002066
:1004D00029A200085DA20008E31300208CA20008F6
:1004E000E413002008B5272006F07AFDF0B905F0E6
:1004F00043FC41F2883004F019FC05F03DFC272054
:1005000006F06EFD58B90A484FF4167100F0DCFE93
:100510000848094906F0F0FB084802F0A9FC27202A
:1005200006F05EFD10B905F027FCF8E708BD00BF36
:10053000A8130020E8130020B3A20008AB1300208A
:1005400010B50A4C05F018FC094800F03BFD2046A8
:1005500003F060F8204603F073FA204603F0ECFF46
:1005600004F0B4FFBDE81040FFF7BCBFCB13002080
:100570009713002000F0BFBE38B50D46044600F0CA
:10058000D5FE290A49006039204601F0FE0100F03D
:1005900064FF204600F03AFFE9B2204600F05DFF1C
:1005A000204600F033FF204600F0C0FE2046A12187
:1005B00000F053FF204600F029FF0021204600F004
:1005C00073FF0546204600F004FF204600F0C9FEF8
:1005D000284638BD70B50D461646044600F0A6FE06
:1005E000290A49006039204601F0FE0100F035FF7C
:1005F000204600F00BFFE9B2204600F02EFF204617
:1006000000F004FF3146204600F027FF204600F0AE
:10061000FDFE204600F0A5FEBDE870400A2006F071
:1006200021BD000008B5154A5178937843EA0123AB
:10063000A3F52043113B112B16D8DFE803F01B1D57
:10064000090B0D151515151515151515150F111384
:10065000022008BD032008BD072008BD042008BDF6
:10066000052008BD062008BD00218022034808F0AF
:100670006DFA08BD002008BD012008BD151300203B
:1006800010B5074C6018114604F048FF054B1B7865
:100690001C4414F8073C1B1A5842584110BD00BFB7
:1006A0001513002098130020084B18795B7943EA52
:1006B000002045F25553984205D04CF20103C31A6D
:1006C0005842584170470120704700BF1513002061
:1006D000044B9B79552B044B0CBF012200221A704E
:1006E000704700BF151300209513002010B5084C6B
:1006F000E379552B01D1012010BD064802F088F99D
:10070000E3798342F7D0D0F1010038BF002010BD5B
:1007100015130020AB13002013B50D4B1C7A552C7C
:1007200001D1012012E00B48694602F0CCF8002309
:100730001A461DF803108C42F3D019B90132D2B217
:10074000052AEED00133052BF3D1002002B010BDF5
:1007500015130020AB13002070B505461E46FFF7A9
:100760008FFF0446A8B12846FFF79EFF044648B114
:100770002846FFF7ADFF2846FFF7B8FF044658B9F3
:10078000A6B909E01249134806F0B6FA1148124911
:1007900019E01048114916E02846FFF7BDFF04464E
:1007A00098B99DF8103043B901240EE00C4909486E
:1007B00006F0A2FA07480B4905E00B49054806F088
:1007C0009BFA0448094906F097FA204670BD00BF1D
:1007D0006CA30008E81300209AA30008C8A300082F
:1007E000ECA3000823A400085AA4000892A400085F
:1007F0001E4B13B51B78002B35D00023009304212A
:1008000017220123FFF7A8FF20B3194B1C7A012CF4
:100810001DD11848D97C01F039FD70B12246164827
:100820000F2104F033FD2146144801F011FA12485B
:100830002146022204F050FC0CE00F481021022255
:1008400004F024FD0E490F4806F056FA02E00A486B
:1008500004F0BAFA0C4B06481A78002102B0BDE841
:10086000104008F073B902B010BD00BF09000020AD
:1008700015130020AA130020E3130020A913002061
:10088000C6A40008E813002098130020184B07B5F1
:100890001B784BB30023009304210A220123FFF7A6
:1008A0005BFFC0B11348144901F0BFFF38B11349D1
:1008B000134806F021FA13480321022209E01249E5
:1008C0000F4806F019FA114B0A220E481A7004213B
:1008D000012204F0DBFC0E4B0E481A78002103B015
:1008E0005DF804EB08F032B903B05DF804FB00BF1B
:1008F00009000020AB1300201D1300200AA50008EA
:10090000E8130020E31300204CA50008E4130020A6
:10091000981300201513002013B500230093042121
:100920000F22FFF719FF10B31D4C1E4804F10A01F6
:1009300001F0B9FA002830D01A4804F10A0101F098
:10094000F2FA50B31849194806F0D6F91848E17977
:1009500002F025F8A0B11749144806F0CDF9164861
:100960000521012204F092FC0E4801F0BDFB134B5F
:100970000B481A78002102B0BDE8104008F0E6B834
:100980000A480F4906F0B8F90E4B0A221A700A48B5
:100990000621012204F07AFCE9E704480A49F1E75C
:1009A00015130020AD13002019A60008E81300203D
:1009B000AB1300208EA50008E3130020981300203D
:1009C000D4A50008E413002046A600080E4B07B586
:1009D0001B78ABB100230093042105220123FFF70C
:1009E000BBFE20B1012109480A4604F075FB084B03
:1009F00008481A78002103B05DF804EB08F0A6B8A7
:100A000003B05DF804FB00BF09000020E3130020E1
:100A10009813002015130020104B13B51B78DBB181
:100A200001240094042106222346FFF795FE50B1CD
:100A30000B4B0C48072122461C7004F027FC1020A9
:100A4000214606F0E3FA084B08481A78002102B064
:100A5000BDE8104008F07AB802B010BD09000020CF
:100A600096130020E3130020981300201513002094
:100A7000354B37B51B78002B63D00124009404213B
:100A800006222346FFF768FE30B3304B1B7813B1C4
:100A90002F48304950E0304B1B7833BB2F4B1B782D
:100AA0001BBB2F4B1B7803BB2E4D2B7823B92E4B32
:100AB0001B7803F0FF01DBB11F2006F091FA00B9AB
:100AC0002870262006F08CFA08B9274B18702B786E
:100AD00083BB254B1B786BBB244B25481A78002120
:100AE00003B0BDE8304008F031B81948214923E08F
:100AF000102006F08BFA262005F064FF1F2005F079
:100B000061FF224609211C4804F0C0FB1B4803F08A
:100B100081FE1F201A49022205F036FF02222620FC
:100B2000184905F031FF1020214606F06FFA05F054
:100B300023F9D1E70648144903B0BDE8304006F078
:100B4000DBB803B030BD00BF09000020BF13002098
:100B5000E813002081A60008BC130020BE1300206B
:100B6000BD130020C8130020C913002098130020D3
:100B700015130020C8A60008E3130020CB130020A3
:100B80002D2F0008992F00081EA7000830B5A44B90
:100B900085B01B78002B00F08F8101230093042186
:100BA0000722FFF7D9FD002835D09E4B1B7873B183
:100BB0009D4B10221A709D480021022204F08CFAED
:100BC0009B499C4806F098F89A489B4973E09B4CD7
:100BD00023783BBB9A4B1B7823BB55E0994906F021
:100BE0008BF89949934806F087F88F4B0A221A70C0
:100BF0008E482146022204F06FFA1F2093490222F8
:100C000005F0C2FE26209249022205F0BDFE10200A
:100C1000012106F0FBF98F4B00211A788E4807F06E
:100C200095FF49E11F2006F0DBF900B9207026206E
:100C300006F0D6F908B9824B1870237873BB804B45
:100C40001B785BBB262005F0BDFE1F2005F0BAFE19
:100C50001020002106F0DAF974480B21012204F07B
:100C600015FB7D4B9B7A8DF80F309DF80F309DF86A
:100C70000F30642B22D99DF80F30F02B5DD09DF8FA
:100C80000F30F12B7BD158E0744B1B786BB9744B50
:100C90001B7853B9734B1B783BB9D3E7724965484E
:100CA00006F02AF86348714905E07149614806F089
:100CB00023F860486F4906F01FF8FDE06E4801F028
:100CC0005FFD04466C4801F0F5FB30B99DF80F302C
:100CD00023B39DF80F30642B20D09DF80F309C4239
:100CE000C9D16649534806F007F86549514806F0EE
:100CF00003F801244C4B4D48214602221C7004F09D
:100D0000EBF91F205149022205F03EFE26205049F2
:100D1000022205F039FE102021462DE09DF80F300B
:100D20000BB9F02300E0F123564942488DF80F300B
:100D300005F0E2FF3F48544905E052493D4805F0BF
:100D4000DBFF3C48514905F0D7FF9DF80F10504894
:100D500002F08EFD3F4B00211A783F4807F0F6FE67
:100D60001F203A49022205F00FFE262038490222B0
:100D700005F00AFE1020012106F048F99CE03E48EB
:100D800001F098FB044688B19DF80F103A4801F035
:100D900073FC04462748002C3FF420AF3D4905F082
:100DA000ABFF3D49234805F0A7FF1CE03B49214824
:100DB00005F0A2FF1F483A4905F09EFF344803F0B2
:100DC00029FD28B337491B4805F096FF36491948D5
:100DD00005F092FF9DF80F10274801F04DFC0546E5
:100DE00028B1324B1C702A4803F07AF814E01549F8
:100DF000104805F081FF2E490E4805F07DFF0A4B93
:100E00000A221A7009482946022204F065F903E013
:100E10000848284905F070FF04F0AEFFEDE600BF7A
:100E200009000020BF130020E4130020E31300207A
:100E300060A70008E813002090A70008C81300204E
:100E4000C91300201FA9000856A900082D2F00086B
:100E5000992F00089813002015130020BE130020BE
:100E6000BC130020BD130020FDAA000810BD00081F
:100E700028AB00087EAB0008AB13002035A80008A3
:100E80008EA80008BBA70008F8A70008C5AB00089B
:100E9000CB130020D7A80008FDA8000887A90008E8
:100EA000E6A900082FAA000861AA0008C0130020C4
:100EB0009CAA0008CEAA000805B030BD1C4B37B56F
:100EC0001B78002B31D00124009404210B222346EF
:100ED000FFF742FC00B31748174901F0CCFD054667
:100EE00028B116480D21224604F0D0F914E0144927
:100EF000144805F001FF1449124805F0FDFE0F48A3
:100F00000E21224604F0C2F9104B0A221A700B4837
:100F10002946022204F0E0F80D4B0E481A78002111
:100F200003B0BDE8304007F011BE03B030BD00BFD4
:100F300009000020AB1300201F130020E313002042
:100F4000F9AB0008E813002018AC0008E4130020F7
:100F5000981300201513002010B50446FFF762FB1C
:100F600007282DD8DFE800F004090E131D222718EA
:100F70002046BDE81040FFF73BBC2046BDE81040CE
:100F8000FFF784BC2046BDE81040FFF7C5BC2046F3
:100F9000BDE81040FFF71ABD2046BDE81040FFF73E
:100FA0003BBD2046BDE81040FFF762BD2046BDE8CE
:100FB0001040FFF7EBBD2046BDE81040FFF77EBFB5
:100FC00010BD00002DE9F0474D4C002681462670EB
:100FD00004F0D2FE374635464A4805F053FD002856
:100FE00040F3898004F0C8FE94F800A045480AF157
:100FF0000103237005F0F2FCDFF8288108F80A00ED
:10100000032006F02FF823781022434413F8011C24
:101010003D4805F0F4FE3C483C4905F05CFE94F97F
:101020000030002B06DA364B002140468022197032
:1010300007F08CFD227808EB020313F8013CFE2B2D
:1010400004D1561EF6B2002F33D102E08FBB0D2B18
:101050002FD00027052DBFD12D492B4805F04CFE80
:101060002C49294805F048FE2B49274805F044FE45
:1010700025482A4905F040FE36B9294B1B7893B123
:101080004846FFF769FF0EE021780023891BDAB29A
:10109000F0188A42C0B203F10103EEDA18F800003A
:1010A00008F80200F3E700232370BDE8F04704F0DE
:1010B00063BE042D1BD8DFE805F003070C111600F2
:1010C0000A3B5D425D4114E00D2B0CBF022500255B
:1010D0000FE00A2B0CBF032500250AE00D2B0CBFE7
:1010E0000425002505E00A2BB6D0002501E00127E4
:1010F000B0E7012770E700232370BDE8F08700BF49
:101100009813002000140020E8130020D7BD000829
:1011100032AC000856AC000878AC0008A3AC00085C
:10112000080000201513002008B52A4B2A491A6828
:10113000096801328A421A604AD300221A60274A9B
:101140001378DB43DBB21370254A1278032A3FD8A9
:10115000DFE802F00B29021C22200BB9012100E07C
:10116000002105F053FF232007E023200BB90121C4
:1011700000E0002105F04AFF2220002105F046FF93
:101180002020002105F042FF21201CE020200BB987
:10119000012100E0002105F039FF2220002105F0A7
:1011A00035FF2320EDE721200BB9012100E00021CC
:1011B00005F02CFF2220002105F028FF232000212C
:1011C00005F024FF20200021BDE8084005F01EBFE7
:1011D00008BD00BF9C130020A4130020A013002012
:1011E000A113002008B52520002105F051FF222081
:1011F000002105F04DFF2320002105F049FF2020AC
:10120000002105F045FF2120002105F041FF2820A5
:10121000022105F03DFF2720022105F039FF2220A1
:10122000002105F0F3FE2020002105F0EFFE232031
:10123000002105F0EBFE2120002105F0E7FEBDE8CE
:1012400008402520012105F0E1BE000010B50A4B41
:101250000A4C19700A4B20460A491A6005F0B9FC7D
:1012600020460121084A05F0D3FC20460021BDE8B4
:10127000104005F0A5BC00BFA1130020E814002019
:10128000A4130020A08601002911000808B50A480F
:1012900005F080FC2220002105F0B8FE202000216E
:1012A00005F0B4FE2320002105F0B0FEBDE80840A3
:1012B0002120002105F0AABEE8140020014805F015
:1012C00071BC00BFE814002038B50D460024AC42C4
:1012D00010D00021252005F099FE4FF4FA7005F09A
:1012E000CFFE2520012105F091FEC82005F0C8FEA3
:1012F0000134ECE738BD08B51620002105F0C8FE22
:101300001720002105F0C4FE1620012105F07EFE05
:10131000BDE808401720012105F078BE1720002104
:1013200005F0B6BE1720042105F0B2BE08B5FFF7E0
:10133000F5FF1720012105F069FE0121162005F0B7
:1013400065FE052005F09CFE0021172005F05EFEDD
:10135000062005F095FEBDE808401620002105F0A6
:1013600055BE08B5FFF7DAFF1620002105F04EFE46
:101370001720002105F04AFE0121162005F046FE47
:10138000062005F07DFE1720012105F03FFEBDE897
:101390000840062005F074BE10B500210446162052
:1013A00005F034FE2046FFF7B9FF0021172005F0B5
:1013B0002DFE022005F064FE0121162005F026FE18
:1013C000052005F05DFEBDE810401620002105F067
:1013D0001DBE10B500210446162005F017FE20465C
:1013E000FFF79CFF0121172005F010FE022005F0F9
:1013F00047FE0121162005F009FE052005F040FEFC
:10140000BDE810401620002105F000BE70B506466C
:10141000FFF788FF0121172005F0F8FD012005F0F6
:101420002FFE1620012105F0F1FD012005F028FE18
:10143000FB25172005F0D4FD044640B1013D15F011
:10144000FF05F6D13046FFF78CFF012070BD162056
:10145000214605F0DBFD204670BD38B50C46FFF790
:101460005DFF1620002105F0D1FD082524F07F0343
:1014700003F0FF01172003B1012105F0C7FD012191
:10148000162005F0C3FD022005F0FAFD162000210C
:1014900005F0BCFD013D0220640005F0F1FD15F0F2
:1014A000FF05E4B2E2D138BDF8B505460F46FFF7B7
:1014B00039FF082600240021162005F0A7FD022090
:1014C00005F0DEFD1620012105F0A0FD64001720C7
:1014D000E4B205F085FD08B10134E4B20120013E1B
:1014E00005F0CEFD16F0FF06E5D1284617B9FFF747
:1014F00070FF01E0FFF750FF2046F8BD08B501205E
:10150000002105F0C5FD0120014605F07FFD3220D8
:10151000002105F0BDFD1320002105F0B9FD1420C8
:10152000002105F0B5FD1320002105F06FFD14200A
:10153000012105F06BFDBDE808403220002105F0D7
:1015400065BD0000014805F0FBBA00BF0014002093
:1015500008B561B10021142005F058FD962005F072
:1015600081FDBDE808401420012105F04FBD08BDF4
:1015700008B50021012005F049FD0C4805F0E3FA0B
:101580000220002105F084FD0320002105F080FDEC
:101590000220002105F03AFD0320002105F036FD70
:1015A000BDE808401420002105F030BD00140020E3
:1015B00010B50B78452B12D14B78522B0FD18B786D
:1015C000CC78303B03EB8303303C04EB4304E4B2C0
:1015D00021460A22034805F01BFC204610BD0A20C4
:1015E00010BD00BFE81300200B784F2B07D14878BF
:1015F0004B2804D113704B780120537070470020A2
:10160000704730B50020C4B20D5D01302C2D01D0E3
:101610001D55F8E7601C5525C0B21D55904204D2F7
:101620000C5C1C540130C0B2F8E730BDF8B54C7802
:10163000432C08D18C78532C05D1CC78B4F15105CA
:101640006C426C4100E000240026F5B24F5D01368B
:101650003A2FFAD10135EDB200279542FEB207F1DB
:10166000010706D811F805C0013501F806C0EDB232
:10167000F3E73CB92046C2B2B2420BD20A5C1A541C
:101680000130F8E7069A022412681470721ED2B272
:10169000FFF7B7FF0120F8BD37B5144809B9144961
:1016A00000E0144905F017FB642005F0DBFC002482
:1016B0000E4805F0E7F90028E5B208DD062C10D049
:1016C0000A4805F08BF90DF804000134F0E745B144
:1016D0009DF802304F2B03D19DF803304B2B02D0E5
:1016E00002E0002000E0012003B030BD0014002023
:1016F000CAAC0008CEAC000810B504460120014673
:1017000005F084FC07484FF4165105F019FA2046FD
:101710000121FFF71DFF20460121BDE81040FFF722
:10172000BBBF00BF001400202DE9F0419EB005AD05
:101730000C4607460021904628466422039307F092
:1017400005FA21462C4805F0C6FA642005F08AFC0B
:101750000024294805F096F90028E6B207DD642C3C
:1017600045D0254805F03AF928550134F1E726B966
:101770002249234805F0C0FA39E09DF814300D2BBA
:1017800035D19DF815300A2B31D11EAB334413F8F7
:10179000653C0A2B2BD1023E1EAB334413F8643C4C
:1017A0000D2B24D10021CCB2A31CDBB2B34201F13A
:1017B000010107DA1EAA134413F8643C144404F828
:1017C000643CF0E738462946FFF7F2FE0A280CD1C0
:1017D00003AB00933846294622464346FFF726FFCF
:1017E00000280CBF0320022002E0012000E00320BB
:1017F0001EB0BDE8F08100BF00140020D4AC00088A
:10180000E81300202DE9F041B2B006460D4690469F
:101810000021642268461F4607F098F919A80021A4
:10182000642207F093F90024E3B2E85C013420B1AC
:1018300032AA134403F8640CF6E70146CAB25D18F5
:1018400018F80240EDB232AA01312A4414B102F86C
:10185000644CF3E70D2302F8643C6B1C32A8DBB246
:1018600003442F480A2203F8642C036819A95B6813
:1018700098472C48AA1C036819A99B68D2B29847BC
:10188000642005F0EFFB274805F0FCF80028E5B2DE
:1018900008DD642C3FD0234805F0A0F80DF80400C3
:1018A0000134F0E7002D36D09DF800300D2B32D1F9
:1018B0009DF801300A2B2ED132AB2B4413F8C93CD2
:1018C0000A2B28D1023D32AB2B4413F8C83C0D2B18
:1018D00021D100218B1CDBB2AB4201F1010209DAFC
:1018E00032A8034413F8C83CC9B2014401F8C83C0B
:1018F0001146EFE730466946FFF75AFE0A2808D13D
:10190000304669463A46FFF76FFE80F00100C0B2EC
:1019100002E0012000E0032032B0BDE8F08100BF0A
:10192000E813002000140020F7B51E4604461746B1
:101930000D4600218DF80710FFF7AEFE04F01CFAEB
:10194000204631462FB12A460DF10703FFF7ECFE82
:1019500003E0089A2B46FFF755FF03282AD8DFE853
:1019600000F011040207002311E01648164901E0B7
:101970001448164905F0C0F920460121FFF78CFEF6
:1019800000201CE012490F4805F0B6F912E09DF85E
:1019900007205E1CDBB29A420A4809D9E95C102292
:1019A00005F02DFA07480B4905F095F93346EEE7A7
:1019B00005F096F920460121FFF76EFE012003B0E5
:1019C000F0BD00BFE8130020E8AC0008F9AC000847
:1019D00002AD0008D7BD00082DE9F0438BB004AF7D
:1019E000804600210922384602AE002407F0AEF8F6
:1019F0000094404631460122324BFFF795FF0546E1
:101A000030B93149314805F077F93048304953E071
:101A10002346F25C07AC092A01D8303204E0A2F177
:101A20000A01052998BF3732E2540133082BF0D15F
:101A30004FF0000927488DF8249000F017FD02466A
:101A400000B32549214805F057F924491F4805F0FE
:101A500053F92048394600F077FC70B14B46E15C01
:101A6000FA5C91421BD10133082BF8D11C4917486D
:101A700005F042F915481B491EE01B49134805F0C3
:101A80003BF907E0009440463146184BFFF74CFF06
:101A9000054698B121460F4800F0A6FC0AE014491B
:101AA0000A4805F029F900974046314600220F4BBD
:101AB000FFF73AFF054601E005F01EF928460BB096
:101AC000BDE8F0830EAD000819AD0008E813002052
:101AD00039AD0008AA1300205CAD00087AAD0008FB
:101AE00002AE00082CAE000898AD0008BCAD00089E
:101AF000C5AD00082DE9F04F89B002AF07F10C0623
:101B00008346894690461C46304600210A2207F04B
:101B10001DF8002C50D1C7F804D05846CDF80080ED
:101B2000314601224B46FFF7FFFE824608B12146AF
:101B300006E04049404805F0DFF83F483F496FE084
:101B4000CCB218F804300131002BF9D1E11D01F4B9
:101B5000FC71ADEB010D02A9D8B2A04203D2F05C3A
:101B6000C8540133F8E70B46581AC0B2A0420DD250
:101B700013F8010B092801D8303004E0A0F10A0560
:101B8000052DF1D8373003F8010CEDE70025EBB255
:101B9000A34243D24B5D013508EB050010F8010C60
:101BA0009842F4D02649244805F0A6F82248254951
:101BB00005F0A2F87B689D466C460023DAB219F85E
:101BC000021001330A29F9D1931D03F4FC73ADEB24
:101BD000030DA2F1020E02AB0020C1B2551EA942B4
:101BE00000F1010003DA19F801505D54F5E7002215
:101BF0003D215A55584603F80E10CDF80080314665
:101C0000FFF792FE054628B90B480F4905F074F816
:101C1000AA4601E04FF0010AA54605E006480B4937
:101C200005F06AF87B689D4650461C37BD46BDE806
:101C3000F08F00BF4EAE0008E813002074AE00081D
:101C400098AE0008EFAE000831AF000866AF00089C
:101C50007FB50F2204460D466846002106F076FF48
:101C60006748684905F048F80A2604F085F8002D11
:101C70006CD12046FFF7B0FE63498DF80000634A3F
:101C80002B462046FFF736FF61498DF80100614A77
:101C900001232046FFF72EFF5F498DF802005F4ABF
:101CA0002B462046FFF726FF5D498DF803005D4A6D
:101CB0002B462046FFF71EFF5B4A5C492B468DF8FA
:101CC00004002046FFF716FF8DF80500584800F085
:101CD0001DFBF1280CBF574A4E4A574901232046A5
:101CE000FFF708FF55498DF80600554A00232046A6
:101CF000FFF700FF53498DF80700514A00232046A3
:101D0000FFF7F8FE50498DF808004A4A01232046A3
:101D1000FFF7F0FE4D498DF809004D4A002320469B
:101D2000FFF7E8FE4B498DF80A004B4A0023204696
:101D3000FFF7E0FE374A8DF80B00484920460123A3
:101D4000FFF7D8FE0D228DF80C000EE0384800F0A9
:101D5000DDFAF1280CBF374A2E4A204636490123C6
:101D6000FFF7C8FE01228DF8000000231DF80310C4
:101D7000C9B93B49224804F0BFFF3A49204804F062
:101D8000BBFF2046FFF7B8FC2046FFF7F1FB03F04E
:101D9000F3FF2046FFF7B0FC4FF4FA6005F062F95C
:101DA00003F0EAFF05E00133D9B29142DED304B07B
:101DB00070BD2D4804F066FE002803DD2A4804F0BB
:101DC0000DFEF6E7013E16F0FF067FF44EAF14223B
:101DD00026480121FFF73AFA2549094804F08CFF0B
:101DE0002449074804F088FF40F6B83005F03AF976
:101DF00003F0C2FF04B0BDE8704003F0F1BF00BFC4
:101E0000E81300208EAF0008BDAF0008C9AF00087E
:101E1000D2AF0008CFAF0008DCAF0008E8AF000881
:101E2000F1AF0008FDAF000811B0000806B00008CF
:101E3000AA1300201EB0000814B0000821B000084A
:101E40002BB000082EB0000838B0000842B00008DF
:101E50004BB000084EB0000858B000085BB0000856
:101E600065B0000882B0000800140020A81300200C
:101E7000A6B00008D2B000081520012105F0C6B8B0
:101E80001520002105F0C2B810B500210446152028
:101E900005F0FEF81520012105F0B8F82046BDE850
:101EA0001040FEF767BB7FB505460E46FFF7E8FF1B
:101EB0000D2433192146284613F80D2C0134FEF762
:101EC00089FB162CF5D13046092103F027FB064685
:101ED000214628463246FEF77DFB0D242146284642
:101EE000FEF74AFB01AB23440134162C03F80D0C1A
:101EF000F4D101A8092103F011FBB04203D0FFF790
:101F0000BBFF00200DE028460B21FEF735FB5528CE
:101F100004D028460B215522FEF75CFBFFF7ACFFEF
:101F2000012004B070BD7FB505460E46FFF7A8FF3F
:101F3000172433192146284613F8172C0134FEF7CD
:101F400049FB202CF5D13046092103F0E7FA06467B
:101F5000214628463246FEF73DFB172421462846F7
:101F6000FEF70AFB01AB23440134202C03F8170CC5
:101F7000F4D101A8092103F0D1FAB04203D0FFF750
:101F80007BFF00200DE028460C21FEF7F5FA5528CE
:101F900004D028460C215522FEF71CFBFFF76CFFEE
:101FA000012004B070BDF0B585B001AD06460F4606
:101FB00028460021092206F0C9FD0D24214630469D
:101FC000FEF7DAFA2B190134162C03F80D0CF5D1B3
:101FD00021463046FEF7D0FA09210446284603F090
:101FE0009DFA844206D10023EA5CFA540133092B9E
:101FF000FAD101E0002000E0012005B0F0BDF0B50D
:1020000085B001AD06460F4628460021092206F09C
:102010009DFD172421463046FEF7AEFA2B190134F8
:10202000202C03F8170CF5D121463046FEF7A4FA10
:1020300009210446284603F071FA844206D10023A0
:10204000EA5CFA540133092BFAD101E0002000E0E8
:10205000012005B0F0BD37B50C461E210546FEF740
:102060008BFA1F218DF804002846FEF785FA02211D
:102070008DF8050001A803F051FA207003B030BDBF
:1020800010B50B210446FEF777FA88B1FFF7F8FE8A
:10209000204600220B21FEF79DFAFFF7EDFE2046B9
:1020A0000B21FEF769FAD0F1010038BF002010BD06
:1020B000012010BD10B50C210446FEF75DFA88B171
:1020C000FFF7DEFE204600220C21FEF783FAFFF721
:1020D000D3FE20460C21FEF74FFAD0F1010038BFA5
:1020E000002010BD012010BD10B521210446FEF7CF
:1020F00043FA552811D0FFF7C3FE2046552221216F
:10210000FEF768FAFFF7B8FE20462121FEF734FA01
:10211000B0F155035842584110BD012010BD0000D8
:1021200038B50446272004F05BFF40BB03F024FED3
:1021300041F2883004F096FF03F01EFE272004F0E1
:102140004FFF0546D8B90E484FF47A71FFF7BCF837
:1021500020462121FEF710FA40B1FFF791FE2046FC
:1021600021212A46FEF736FAFFF786FE2046212176
:10217000FEF702FAD0F1010038BF002038BD38BDAB
:10218000A813002008B52121FEF7F6F9B0F1550398
:102190005842584108BD000038B504460D46FFF7C7
:1021A00002FF20B120462946FFF729FF40BB204609
:1021B0002946FFF7F8FE48B11449154804F09CFD84
:1021C00020462946BDE83840FFF7ADBE20462946E7
:1021D000FFF715FF48B10F490D4804F08DFD20466B
:1021E0002946BDE83840FFF75EBE0B49084804F0B9
:1021F00083FD2046FFF744FF2046FFF75BFF03E027
:102200000348064904F078FD012038BDFBB0000802
:10221000E813002032B1000869B100087DB1000860
:1022200010B548210446FEF7A7F9552811D0FFF74D
:1022300027FE204655224821FEF7CCF9FFF71CFE69
:1022400020464821FEF798F9B0F15503584258410D
:1022500010BD012010BD10B54D210446FEF78CF9CC
:10226000552810D0FFF70CFE204655224D21FEF7D1
:10227000B1F9FFF701FE20460021FEF77DF900309D
:1022800018BF012010BD012010BD000037B58DF82A
:1022900007101031C9B20129044629D84C21FEF794
:1022A0006BF99DF80730834228D002ADFFF7E8FDB7
:1022B00015F8012D20464C21FEF78CF90121284606
:1022C00003F02CF94E2102462046FEF783F9204602
:1022D0004C21FEF751F99DF80730834205D1204685
:1022E000FFF7B9FFFFF7C8FD08E0FFF7C5FD03E002
:1022F0000448054904F000FD002000E0012003B07F
:1023000030BD00BFE8130020ADB1000837B54C2147
:102310000446FEF731F902AB03F8010D184601211E
:1023200003F0FCF84E2105462046FEF725F98542CC
:1023300002D19DF8070004E02046F021FFF7A6FF38
:10234000F02003B030BD0000F7B505460E464F241F
:1023500021462846FEF710F900AB23440134572CE0
:1023600003F84F0CF4D10821684603F0D7F8214652
:1023700007462846FEF700F987420CD100231DF8D6
:102380000320F2540133082BF9D10448044904F026
:10239000B3FC012000E0002003B0F0BDE8130020F2
:1023A000E3B1000810B558210446FEF7E5F85528BA
:1023B00008D0FFF765FD204658215522FEF70AF99F
:1023C000FFF75AFD10BD10B558210446FEF7D4F8AA
:1023D00040B1FFF755FD204658210022FEF7FAF8DC
:1023E000FFF74AFD10BD0000F7B50F460546FFF7A1
:1023F00047FD3846082103F091F84F2406463B1963
:102400002146284613F84F2C0134FEF7E3F8572CE9
:10241000F5D1214628463246FEF7DCF84F24214606
:102420002846FEF7A9F800AB23440134572C03F8E3
:102430004F0CF4D16846082103F070F8864206D0AC
:102440002846FFF7C0FFFFF717FD002007E005490A
:10245000054804F051FC2846FFF7A4FF012003B013
:10246000F0BD00BFF8B10008E813002008B55821FE
:10247000FEF782F8B0F155035842584108BD10B537
:1024800026210446FEF778F8552811D0FFF7F8FC0E
:10249000204655222621FEF79DF8FFF7EDFC204649
:1024A0002621FEF769F8B0F155035842584110BD96
:1024B000012010BD08B52621FEF75EF8B0F15503E6
:1024C0005842584108BD10B526210446FEF754F87D
:1024D00088B1FFF7D5FC204600222621FEF77AF8C6
:1024E000FFF7CAFC20462621FEF746F8D0F101008E
:1024F00038BF002010BD012010BD37B5C1F307253E
:102500008DF805100F39B1F5E97F04468DF80450B8
:102510000ED22721FEF730F885420BD12046282124
:102520009DF80550FEF728F8854203D101202EE0E2
:1025300000202CE0FFF7A4FC204627219DF8042072
:10254000FEF748F89DF8052020462821FEF742F8BE
:10255000022101A802F0E2FF05462A462046292171
:10256000FEF738F8FFF788FC27212046FEF704F82D
:1025700028218DF804002046FDF7FEFF02218DF88A
:10258000050001A802F0CAFF431B5842584103B09E
:1025900030BD13B527210446FDF7EEFF28218DF845
:1025A00004002046FDF7E8FF29218DF805002046AC
:1025B000FDF7E2FF0221044601A802F0AFFF8442CA
:1025C00005BF9DF804009DF805304FF6FF7043EA03
:1025D000002002B010BD13B564298DF8071028D86B
:1025E000012003F049FB9DF80730C0B2984222D089
:1025F000013898421FD013B901238DF8073001210B
:102600000DF1070002F08AFF044603F029FB0120C8
:102610009DF8071003F037FB0220214603F033FB3F
:1026200003F024FB022003F027FB031B5842584110
:1026300002E0002000E0012002B010BD13B501202F
:1026400003F01AFB02AB03F8010D1846012102F05A
:1026500065FF0446022003F00FFB844209D19DF878
:102660000730012B04BF00238DF807309DF80700C9
:1026700000E0FF2002B010BD13B564298DF80710EB
:1026800028D8032003F0F8FA9DF80730C0B298422A
:1026900022D0013898421FD013B901238DF807309A
:1026A00001210DF1070002F039FF044603F0D8FACA
:1026B00003209DF8071003F0E6FA0420214603F0FA
:1026C000E2FA03F0D3FA042003F0D6FA031B5842CF
:1026D000584102E0002000E0012002B010BD13B517
:1026E000032003F0C9FA02AB03F8010D18460121DB
:1026F00002F014FF0446042003F0BEFA844209D11C
:102700009DF80730012B04BF00238DF807309DF89A
:10271000070000E0FF2002B010BD13B564298DF85A
:10272000071028D8052003F0A7FA9DF80730C0B29B
:10273000984222D0013898421FD013B901238DF856
:10274000073001210DF1070002F0E8FE044603F016
:1027500087FA05209DF8071003F095FA0620214618
:1027600003F091FA03F082FA062003F085FA031BC6
:102770005842584102E0002000E0012002B010BDA4
:1027800013B5052003F078FA02AB03F8010D1846E3
:10279000012102F0C3FE0446062003F06DFA8442D4
:1027A00009D19DF80730012B04BF00238DF80730B5
:1027B0009DF8070000E0FF2002B010BD38B50546C7
:1027C00003F04EFA0124204603F056FA50B1204699
:1027D000002103F058FA204603F04EFA10B103F03E
:1027E00045FA19E00134E4B2072CECD103F03EFACB
:1027F000FFF746FB412428462146FDF7BDFE68B1A0
:10280000284621460022FDF7E5FE28462146FDF731
:10281000B3FE18B1FFF730FB002038BD0134472C60
:10282000E9D1FFF729FB012038BDF8B504460E4673
:102830002F2573192046294613F82F7CFDF79CFE9F
:10284000874203D10135342DF3D136E0FFF718FB71
:102850002F2573192946204613F82F2C0135FDF733
:10286000B9FE342DF5D10521304602F057FE07465A
:10287000294620463A46FDF7ADFE2F25204629463B
:10288000FDF77AFE731913F82F3C834217D10135F7
:10289000342DF3D120462946FDF76EFEB8420ED105
:1028A00020463521FDF768FE552804D02046352105
:1028B0005522FDF78FFEFFF7DFFA0120F8BDFFF785
:1028C000DBFA0020F8BDF7B505460E462F24214659
:1028D0002846FDF751FE00AB23440134342C03F8A5
:1028E0002F0CF4D10521684602F018FE2146074658
:1028F0002846FDF741FE874207D100231DF803203B
:10290000F2540133052BF9D101E0002000E0012051
:1029100003B0F0BD73B505462F2421462846FDF7C8
:102920002BFE00AB23440134342C03F82F0CF4D1DC
:102930006846052102F0F2FD214606462846FDF7CD
:102940001BFE331A5842584102B070BD38B50546D7
:10295000FFF796FA2F2428462146FDF70DFE68B1B1
:10296000284621460022FDF735FE28462146FDF780
:1029700003FE18B1FFF780FA002038BD0134342C73
:10298000E9D128463521FDF7F7FD20B1284635214C
:102990000022FDF71FFEFFF76FFA012038BD37B5A3
:1029A0000D468DF8071036210446FDF7E5FD8542FA
:1029B0002BD002ADFFF764FA15F8012D2046362121
:1029C000FDF708FE0121284602F0A8FD3721024646
:1029D0002046FDF7FFFD20463621FDF7CDFD9DF891
:1029E000073083420DD120463821FDF7C5FD55281B
:1029F00004D0204638215522FDF7ECFDFFF73CFAC4
:102A000003E0FFF739FA002000E0012003B030BDF9
:102A10003621FDF7B1BD37B536210546FDF7ACFDD2
:102A200002AB03F8010D1846012102F077FD3721B2
:102A300004462846FDF7A0FD231A5842584103B02A
:102A400030BD10B536210446FDF796FD88B1FFF77D
:102A500017FA204636210022FDF7BCFD204636211C
:102A6000FDF78AFD18B1FFF707FA002010BDFFF748
:102A700003FA012010BDF8B505460E462A24331985
:102A80002846214613F82A7CFDF776FD874215D1AA
:102A900001342F2CF3D10FE00134052C11D128463D
:102AA0004721FDF769FD552804D0284647215522C6
:102AB000FDF790FDFFF7E0F90120F8BDFFF7E0F921
:102AC000002404F12A0728463946325DFDF782FDCD
:102AD00028463946FDF750FD335D8342DCD0FFF7D1
:102AE000CBF90020F8BD10B547210446FDF744FDA1
:102AF000552801D0142010BD20462B21FDF73CFDA8
:102B0000431EDBB2632BF5D810BD10B54721044638
:102B1000FDF732FD552801D0142010BD20462D218F
:102B2000FDF72AFD431EDBB2632BF5D810BD08B5B7
:102B30002E21FDF721FD431EDBB20A2B28BF032007
:102B400008BD73B50D4649210446FDF715FD4A2120
:102B500006462046FDF710FD40EA06202B1A642B9E
:102B60003AD9401B642837D92B0A022101A88DF8D5
:102B700004308DF8055002F0D1FC0546FFF780F9CE
:102B8000204649219DF80420FDF724FD20464A21D6
:102B90009DF80520FDF71EFD2A4620464B21FDF736
:102BA00019FDFFF769F949212046FDF7E5FC4A21A7
:102BB0008DF804002046FDF7DFFC02218DF80500AA
:102BC00001A802F0ABFC4B2105462046FDF7D4FCE2
:102BD000431B5842584100E0012002B070BD73B55C
:102BE0000D4649210446FDF7C7FC4A218DF8040033
:102BF0002046FDF7C1FC02218DF8050001A802F076
:102C00008DFC4B2106462046FDF7B6FC86420DD1D1
:102C10009DF805309DF8040043EA002043F2AF63BD
:102C20009842286094BF0020012000E0002002B0FC
:102C300070BD73B50D4639210446FDF79DFC3A2160
:102C400006462046FDF798FC40EA0620401B642813
:102C500048D96430642845D92B0A022101A88DF88F
:102C600004308DF8055002F059FC0546FFF708F9CD
:102C7000204639219DF80420FDF7ACFC20463A217E
:102C80009DF80520FDF7A6FC2A4620463B21FDF7CE
:102C9000A1FC39212046FDF76FFC3A218DF8040094
:102CA0002046FDF769FC02218DF8050001A802F01D
:102CB00035FC3B2105462046FDF75EFCA8420DD1C0
:102CC00020463C21FDF758FC552804D020463C21E5
:102CD0005522FDF77FFCFFF7CFF803E0FFF7CCF8B4
:102CE000002000E0012002B070BD73B50D4639210F
:102CF0000446FDF741FC3A218DF804002046FDF71B
:102D00003BFC02218DF8050001A802F007FC3B21E5
:102D100006462046FDF730FC86420DD19DF8042082
:102D20009DF80530012043EA0223B3F5967F38BFB2
:102D30004FF448732B6000E0002002B070BD73B503
:102D40000D463D210446FDF717FC3E210646204670
:102D5000FDF712FC40EA0620401B642848D9643085
:102D6000642845D92B0A022101A88DF804308DF87A
:102D7000055002F0D3FB0546FFF782F820463D21BF
:102D80009DF80420FDF726FC20463E219DF80520F5
:102D9000FDF720FC2A4620463F21FDF71BFC3D2184
:102DA0002046FDF7E9FB3E218DF804002046FDF7A3
:102DB000E3FB02218DF8050001A802F0AFFB3F21E3
:102DC00005462046FDF7D8FBA8420DD120464021FC
:102DD000FDF7D2FB552804D0204640215522FDF7AF
:102DE000F9FBFFF749F803E0FFF746F8002000E0A1
:102DF000012002B070BD73B50D463D210446FDF7BC
:102E0000BBFB3E218DF804002046FDF7B5FB0221F7
:102E10008DF8050001A802F081FB3F2106462046FF
:102E2000FDF7AAFB86420DD19DF804209DF80530E0
:102E3000012043EA0223B3F5967F38BF4FF448736D
:102E40002B6000E0002002B070BD38B53C21054683
:102E5000FDF792FB402104462846FDF78DFB552CDB
:102E600004D1B0F155035842584138BD002038BD57
:102E700010B53C210446FDF77FFB20B920464021D8
:102E8000FDF77AFB68B1FEF7FBFF20463C210022EC
:102E9000FDF7A0FB204640210022FDF79BFBFEF73B
:102EA000EBFF012010BD37B53C210446FDF764FB64
:102EB000552807D020464021FDF75EFB55281AD043
:102EC000012030E039212046FDF756FB3A218DF8EC
:102ED00004002046FDF750FB02218DF8050001A8F3
:102EE00002F01CFB3B2105462046FDF745FB8542D1
:102EF000E0D0002017E03D212046FDF73DFB3E21BC
:102F00008DF804002046FDF737FB02218DF80500FF
:102F100001A802F003FB3F2105462046FDF72CFBEC
:102F20002B1A5842584103B030BD000008B51F208D
:102F300003F048FD1F2004F053F801280ED142F29F
:102F4000107004F09DF81F2004F04AF8012815D1F4
:102F50000E4B002218700E4B1A700FE01F2004F069
:102F60003FF858B942F2107004F08AF81F2004F0BC
:102F700037F818B9054B187001F0C2FEBDE80840DB
:102F80001F200449022203F0FFBC00BFC813002029
:102F9000B01300202D2F000808B5262003F012FDE5
:102FA000262004F01DF801280ED142F2107004F022
:102FB00067F8262004F014F8012815D10E4B0022E2
:102FC00018700E4B1A700FE0262004F009F858B95B
:102FD00042F2107004F054F8262004F001F818B9F9
:102FE000054B187001F08CFEBDE80840262004490E
:102FF000022203F0C9BC00BFC9130020B013002097
:10300000992F000808B50720002104F041F824207A
:10301000002104F03DF81020002104F039F80620CA
:10302000032104F035F80420032104F031F80520D1
:10303000032104F02DF81F20022104F029F8262096
:10304000022104F025F81020012103F0DFFF1F20EA
:103050000E49022203F098FC02220D49262003F0BB
:1030600093FC1F2003F0BCFF0A4B012814BF002271
:1030700018704FF0260018BF1A7003F0B1FF064B0E
:10308000012816BF002218701A7008BD2D2F0008E5
:10309000992F0008C8130020C9130020012908B582
:1030A00003D008D20720002107E0072003F0AEFF7D
:1030B0002420002105E00720012103F0A7FF2420A0
:1030C0000121BDE8084003F0A1BF000073B51B4813
:1030D0000C4616461D46FFF7B8FE60B31748FFF7CB
:1030E000E2FE20B91548FFF7C3FE022024E0134892
:1030F000FFF70BFD04F04CFB0022114B04F0D8FC51
:1031000004F08EFE206025B901A90C48FFF7EDFD03
:1031100005E0012D0BD1094801A9FFF76CFE0198CC
:1031200004F084FF0146206804F0D8FF2060019B72
:103130000020336000E0032002B070BDAB1300201C
:103140000000244008B501F0DBFD07480221FFF72D
:10315000A5FF064A00231370054A1370054A137031
:10316000BDE8084001F0BEBDCB130020BC13002019
:10317000BE130020BD130020454B2DE9F0411A7805
:10318000884602F0FF04002A7ED000221A70414BCC
:103190001B783BB9404B1B7823B9404B1B7803F09D
:1031A000FF053BB13E4A137803F0FF0513B100233E
:1031B000137001253B4B1C68B4F5167F34BF002407
:1031C00001240DB9002C5FD0FFF7BCFF3648022167
:1031D0000A22FEF73BF83548FFF7F0FA0746344875
:1031E00087B9344903F088FD3349314803F084FD41
:1031F000324B0A221A7032483946022201F06CFF23
:10320000012441E02F4903F077FD2F49284803F0BE
:1032100073FD2648FFF757F90646254886B92B491E
:1032200003F06AFD2A49224803F066FD234B0A2277
:103230001A7023483146022201F04EFF3C4623E03B
:10324000244903F059FD2DB11948234903F054FDD9
:10325000052211E094B1B8F1000F05D114481F49BF
:1032600003F04AFD022207E0B8F1010F06D1104831
:103270001B4903F041FD0322104B1A701048002136
:10328000022201F029FF34462046BDE8F08100BF4C
:10329000AF130020BC130020BE130020BD1300207C
:1032A000D0130020C4130020A8130020AB1300206B
:1032B000E81300200DB2000846B20008E413002015
:1032C000E31300207CB20008B6B20008ECB200089C
:1032D0002AB2000831B3000876B30008ADB3000885
:1032E000F8B3000870B51F4D0C462B781646002B1E
:1032F00035D000232B701C4DFFF724FF0E231B48F5
:1033000002210A222B70FDF7A1FF24B918491948A0
:1033100003F0F2FC21E0012C08D11749154803F015
:10332000EBFC31461548FFF756F916E0023C012C3C
:1033300013D813490F4803F0DFFC1048FFF7C3F818
:10334000044650B90F490B4803F0D6FC0A230E4837
:10335000214602222B7001F0BFFE012070BD1846ED
:1033600070BD00BF96130020E4130020A8130020B6
:1033700042B40008E813002084B40008AB13002016
:10338000C2B4000805B50008E313002000000000E7
:1033900030B58DB001AD00212C22284605F0D6FBBA
:1033A00002F0EAFC0024062003F00CFE285104344D
:1033B0002C2CF8D10B226B460AACA34207D053F851
:1033C000040F5968884284BF58601960F5E7013AD4
:1033D00012F0FF02EFD1079804F0CAF908A3D3E96D
:1033E000002304F03BFA0022074B04F037FA0022D6
:1033F000064B04F081F804F0F3FC0DB030BD00BFC3
:103400000000000000C8E93F000034400000E03F39
:103410002DE9F8439846244B0E461B78144613B109
:103420000020BDE8F883214B1A78002AF8D1204DFE
:103430002B682F46022BF3D91E4B01221A70FFF77F
:10344000A7FF64281C4A2BD813680BB93B6813608C
:103450003968136803339942E2D3174B00251D6086
:103460005CB1012C17D11549154803F045FC154BEB
:10347000357020461C70BDE8F8831148124903F0EE
:103480003BFCB8F1000F01D1642333700D4B0120D8
:103490001870BDE8F8830D49094803F02DFCBFE71B
:1034A0002B681360BCE700BFC8130020C9130020BD
:1034B000C4130020AF130020D41300206DB5000802
:1034C000E8130020C013002037B50008A5B5000898
:1034D000032BF8B505460C4617462FD0022B2DD0EE
:1034E000FFF756FF0646384604F0A0FD214604F0DB
:1034F000EDFC0446304604F099FD214604F0AAFF95
:1035000008B90020F8BD2846FFF742FF04F08EFD01
:10351000214604F09FFF0A4C70B123780133DBB2DF
:1035200023702378632BECD90649074803F0E4FBAA
:10353000002323700120F8BD2070F8BD1846F8BDA7
:10354000AE130020C4B50008E813002038B50446C7
:103550002548007880B92548007868B9244805686E
:10356000032D054608D92348007838B92248007849
:1035700020B92248007808B9002038BD2046FFF75E
:10358000A7FF03282ED801A353F820F079350008AF
:103590009D350008C5350008793500082046FFF73D
:1035A000D1FD174B06221A7016480021022201F0A5
:1035B00093FD154802210A22FDF748FE00232B60E7
:1035C000012038BD0E4C23780A2BD5D00F49104866
:1035D00003F092FB0A230B4800210222237001F022
:1035E0007BFDC9E738BD00BFC8130020C913002008
:1035F000C4130020BC130020BE130020BD13002004
:10360000E4130020E3130020A8130020F8B50008FD
:10361000E8130020F8B5054602F0AEFB2A4B1A78F5
:103620001E46002A4FD1294B294C1A781F462AB929
:10363000284B1B7803F0FF02002B43D01F2003F020
:10364000CFFC00B93870262003F0CAFC08B9214B22
:1036500018702846FFF79CFE632805D8236864206D
:103660000133236001F062FB226844F24F639A4207
:1036700029D91F2003F0A6F9262003F0A3F9144B43
:1036800000221A60144901231448337003F034FBFC
:103690001348FFF793F8134C054650B912490F48E9
:1036A00003F02AFB0A23114829460222237001F065
:1036B00013FD102323700D4800210222BDE8F840BD
:1036C00001F00ABD2260F8BDBF130020C81300201E
:1036D000B4130020C91300203EB60008E8130020F0
:1036E000AB130020E413002054B60008E3130020BD
:1036F0002DE9F7438846054614461E46FFF722FD8E
:1037000002F03AFB01F0FCFA524B01221A70524FC0
:10371000524A00234FF47A703B60B946136001F0BF
:1037200005FB02F029FB1EB124B14D48012103E045
:10373000002CFAD04A480021FFF7B0FC4FF47A7011
:1037400001F0F4FA02F018FB01F0E0FA01F0B4FA2B
:1037500005E03B68C9F800303B68072B1BD802F036
:103760000BFB2846FFF714FE63283E4FF1D8D9F82B
:10377000003013B93A68384B1A603A68D9F800300B
:1037800003339A42EBD3344B0024374937481C604B
:1037900003F0B2FA36E02846FFF7D4FC4FF47A7013
:1037A00001F0C4FA02F0E8FA1EB124B12C4800215D
:1037B00003E0002CFAD02A480121FFF76FFC02F049
:1037C000DBFA01F0A3FA01F077FA4FF47A7001F016
:1037D000ADFA11E0C4B100224146009201922846A0
:1037E0001346FFF715FE014650B92846FFF7C4FC03
:1037F00040B93B68092B03D802F0BEFA5EB1E9E795
:10380000012023E0002021E0009401942846414655
:103810000122234606E064B10096019628464146FF
:1038200001223346FFF7F4FD0028E9D128460121A3
:10383000DCE7009401942846414622462346FFF7E0
:10384000E7FD0028DCD128462146CFE703B0BDE8DC
:10385000F08300BFBC130020CC130020D413002041
:10386000CB130020C4130020A3B60008E8130020E7
:103870002DE9F04F634B00250126DFF8BC91DFF8FE
:10388000BCA187B08B461D70314607230222044637
:103890005D488AF800308DF80F5089F8006001F01B
:1038A0001BFC5A4803210522FDF7D0FCBBF1F00FA9
:1038B00010D15749574803F01FFA04A905AA334607
:1038C0002046FFF703FC314680465348FFF7E6FBEE
:1038D0002F4616E0BBF1F10F12D150494D4803F0CD
:1038E0000BFA2B4604A905AA2046FFF7EFFB374643
:1038F0002946804648482E46FFF7D0FB3D4600E06B
:103900002E4601F003FA01F0D7F902F035FAD5B1ED
:10391000002200920192134620460DF10F01FFF79D
:1039200077FD024610BB20460221FFF7DBFC08B101
:10393000012064E020460499059A4346FFF706FEFD
:1039400080B100205BE06EB10095019520460DF13D
:103950000F0101222B46FFF75BFD38B920460321FA
:103960002A46E2E72E48FDF72DFBCEE720460DF173
:103970000F013A460123FFF7BBFE30B32949254822
:1039800003F0BAF92046FFF7DDFB9DF80F1026483B
:10399000FEF721FE9DF80F102348FEF76DFE01246F
:1039A0009DF80F102048FEF7B8FE21461648022267
:1039B0008AF8004001F090FB0023144802210A22FB
:1039C00089F80030FDF742FCB2E71248174903F0CE
:1039D00093F9012389F8003002F0CEF9144B01214C
:1039E0001970144B19700EB1204603E0002DF3D06E
:1039F00020463146FFF7C0FB0028EDD0A1E707B015
:103A0000BDE8F08F96130020E3130020A8130020D8
:103A1000DDB60008E8130020CB130020F2B6000842
:103A20009713002006B70008AB1300201EB700084C
:103A3000AF130020D0130020BD130020E41300209A
:103A4000464B2DE9F0411A7805461E46444C12B902
:103A5000444B1B783BB102F08FF94348FEF72AFD37
:103A600008B1237853B12378002B74D03F4A1378E0
:103A7000904603F0FF07002B6DD114E03B4B1B7801
:103A8000002BF0D101F018F9354B01221A70337870
:103A900013B1374B1A70E6E7324A1278002AE2D0A7
:103AA000334A1370DFE7334C284623682646013338
:103AB0002360FFF76DFC63284DD80A2001F036F92A
:103AC0002846FFF765FC632845D8254B1F703368EF
:103AD0000A2B3BD92448FEF75CFD274B64241B6866
:103AE0005C43234BB4FBF0F01B78C4B21E484BB1CF
:103AF000FEF7A4FD2044C4B2642C28BF64241F48F0
:103B00001F4908E0FEF79AFD001BC4B2652C1B4854
:103B10001C4928BF002403F0DEF80A22214617487A
:103B200003F076F921461048FEF755FD21460E4870
:103B3000FEF7A2FD21460C48FEF7EFFD124B0F22C7
:103B40001A7012480021012201F0C6FA00233360E6
:103B5000012388F800300020BDE8F081C813002060
:103B6000CA130020C9130020AB130020B01300209B
:103B7000C1130020B8130020C4130020E813002054
:103B80003AB700086BB70008E4130020E3130020E5
:103B900030B597B000212C2268460BAD04F0D6FF5B
:103BA00000212C22284604F0D1FF02F0E5F8002481
:103BB000042003F007FA4DF80400052003F002FA90
:103BC000285104342C2CF3D10B22ADF1040309ACA1
:103BD000A34207D053F8040F5968884284BF586045
:103BE0001960F5E7013A12F0FF02EED10B220AABA1
:103BF00014ACA34207D053F8040F5968884284BF1D
:103C000058601960F5E7013A12F0FF02EFD106980B
:103C100003F0AEFD10A3D3E9002303F01FFE002242
:103C20000F4B03F01BFE044611980D4603F0A0FD58
:103C300009A3D3E9002303F011FE0022084B03F08F
:103C40000DFE02460B462046294603F053FC04F0C5
:103C50009FF817B030BD00BF0000000000C8E93F6A
:103C600000002640AFF30080F8B51C46114B0D460E
:103C70001B6816469B07069F1BD10F4B1B7803B989
:103C8000F8BDFFF785FF20602B6801332B602368A8
:103C9000002B01DA5B422360236843F2B062934257
:103CA00003DD326813443360F8BD3B6801333B6089
:103CB000F8BDF8BDC4130020D11300202DE9F8434E
:103CC000089F0C6899463B688846E41A13681646B4
:103CD000B3FBF4F414602CB91348144903F00CF846
:103CE00025461EE012482146FEF72BFF054640B947
:103CF000104B0A221A7010482946022201F0ECF9F2
:103D00000FE00E49084802F0E6FF074821460A2264
:103D100003F091F800203060C8F80000C9F80000F6
:103D200038602846BDE8F883E81300209EB70008F5
:103D3000AB130020E4130020E3130020CBB70008EE
:103D40002DE9F34105460C46174602F015F82846C2
:103D5000FFF71EFF01A9051E5948BABF6D424FF07B
:103D600001084FF00008FEF73AFF019E42F210737F
:103D7000AE1B46BF7642002501259E4204DD514917
:103D8000514802F0B9FF84E0B6F5FA7FC0F28180B5
:103D90004D484E4902F09FFF2046B8F1000F27D052
:103DA0006DB1B6F57A6F3EDA03F0E2FC04463046B8
:103DB0000D4603F0EDFC38A3D3E9002326E0B6F569
:103DC0007A6F0ADB03F0D4FC044630460D4603F05C
:103DD000DFFC33A3D3E9002347E003F0C9FC04462A
:103DE00030460D4603F0D4FC4FF03332384B3CE004
:103DF00025B3B6F57A6F16DB03F0BAFC04463046FD
:103E00000D4603F0C5FC28A3D3E9002303F026FDEB
:103E10000022304B03F04CFE02460B46204629465A
:103E200003F068FB2DE003F0A3FC044630460D468A
:103E300003F0AEFC1EA3D3E90023E7E7B6F57A6FE3
:103E400009DB03F095FC044630460D4603F0A0FC68
:103E50000022214B09E003F08BFC044630460D465E
:103E600003F096FC14A3D3E9002303F0F7FC00222F
:103E7000184B03F01DFE02460B462046294603F070
:103E80003BFB03F0ADFF386039680F480A2202F0AF
:103E9000D2FF02B0BDE8F081CDCCCCCCCCCCEC3F95
:103EA0009A9999999999F93F676666666666E63FB9
:103EB0009A9999999999E93F9A9999999999F13F7C
:103EC000AB13002003B80008E81300203AB800083C
:103ED0003333F33F00407F400000F83FAFF30080F2
:103EE0002DE9F04F00258FB00646A3488DF82B50E2
:103EF0000B95FEF71CFE049001F03EFF9E48FEF776
:103F0000D9FA0446002800F028829B48FEF796FB69
:103F100080469948FEF7E3FB984B8DF82B009648B6
:103F20001D70FEF736FB4FF6FF7383469B459448A2
:103F300015D1944902F0E0FE8F48FEF73FFC04469D
:103F400000284CD190498E4802F0D6FE8F4B0A22B1
:103F50001A708F482146022201F0BEF851E28D49C5
:103F600002F0B9FE0A224146854802F051FF8A4913
:103F7000834802F0B0FE0A229DF82B10804802F020
:103F800047FF86497E4802F0A6FE59460A227C4831
:103F900002F051FF01F0F0FEB8F1640F7B4F06D83C
:103FA0009DF82B30642B02D8BBF5F07F19D97C49E2
:103FB000734802F0A1FE0A237548002102223B70DB
:103FC00001F08AF86C48FEF77EFA04466A48FEF76C
:103FD000F5FB04B118B96A48724902F08DFE00245D
:103FE0000FE207236A48012102223B7001F074F8B6
:103FF00001F0C2FE6C4B4FF0010A83F800A06B4B3E
:104000001D706B4B1D609DF82B3043450FD89845B4
:104010000FD8434510D13046FFF794F85C4851461D
:10402000022287F800A0544601F056F8E9E12F4635
:1040300004E05746AA4601E02F46AA4601F09CFE3E
:10404000BAF1000F0AD09DF82B303046C8EB0303BD
:104050005FFA83F90CA90DAA00230AE06FB19DF85D
:104060002B303046C3EB08035FFA83F90CA90DAA85
:104070000123FFF72BF8059000E0B946484603F00E
:1040800087FB3BA3D3E9002303F0E8FB0446584633
:104090000D4603F06DFB02460B462046294603F011
:1040A000DDFB0022434B03F027FA03F099FE42495F
:1040B00006900B90324802F00EFE06990A22304814
:1040C00002F0B9FE01F058FEBAF1000F06D03B48ED
:1040D0000021FEF7E3FF0120079006E02FB13748EB
:1040E0000121FEF7DBFFCDF81CA0032134480A2292
:1040F000FDF7ACF800F00AFE00F0DEFD04990A239B
:104100004B4300250993089504952C4601F034FE95
:104110009DF82B30013B622B0DD82A4B1A680B9B64
:104120009A4208D31648284902F0E6FDBAF1000F7A
:1041300000F00781F6E0BAF1000F10D00B9B0DF1F3
:104140002B010193CDF80090304600220123FFF7A8
:104150005FF90146002840F0E580304651E0AFBBF2
:10416000184B04981A68824261D8CBE0AFF3008004
:104170007B14AE47E17A843FAB130020D0130020BC
:10418000E813002089B8000854B60008E4130020A2
:10419000E3130020CFB80008FCB800081CB90008E1
:1041A0004CB9000887B90008BE1300209613002000
:1041B000D41300200000E03FCFB90008CB1300204B
:1041C000A8130020C413002015BA00080B9B01227D
:1041D0000193CDF8009030460DF12B011346FFF707
:1041E00017F960B189498A4802F075FD894B884802
:1041F00019680A2202F01FFE854887499EE0304672
:104200000121FEF7B9FF00287FF4E9AE3046012115
:104210002246FFF767F808B10124F2E030460C9916
:104220000D9A059BFFF792F9002899D0D7E61968F7
:1042300001350491EDB2BAF1000F25D0039301F0DE
:104240009BFD039B186803F0F1FE0446584603F0FB
:10425000EDFE0146204603F0F5FF704903F03EFFF6
:104260000446404603F0E6FE0146204603F02EFEDB
:1042700004F0FAF80A23C4B2B4FBF3F203FB1243CE
:1042800013F0FF0F2ED02BE0002F33D0039301F05B
:1042900073FD039B40461B68039303F0CBFE039B17
:1042A0000446184603F0C2FE03465846039303F043
:1042B000BDFE039B0146184603F0C4FF574903F0B7
:1042C0000DFF0146204603F0FFFD04F0CDF80A2360
:1042D000C4B2B4FBF3F203FB1243DBB2012B01D1F6
:1042E000013CE4B221464E48FEF717FA4C482146FD
:1042F000FEF771F9022D05D9304606990BAAFFF792
:104300001FFD0025434B09981A68B2FBF0F100FB32
:10431000112119B91A680898824227D14148FCF73F
:1043200051FEF3E640493A4802F0D5FC394B384893
:1043300019680A2202F07FFD35483C4902F0DCFC96
:1043400002E0002F7FF44EAF9DF82B30ABB1642B11
:1043500013D0374B1B7883B937E036492C4802F02D
:10436000CBFC35492A4802F0C7FC4AE01B683348B9
:104370000122089300F0B0FED0E730460DF12B018A
:10438000079A0123FFF7B4F920B12D49204802F024
:10439000B3FC1AE01E482B4902F0AEFC2A4B012266
:1043A0001A7001F0E9FC294B01211970284B197092
:1043B0000FB1304604E0BAF1000FF2D03046394672
:1043C000FEF7DAFE0028ECD009E63046FEF7BAFE2A
:1043D00001F0D2FC9DF82B101148FEF7FCF89DF877
:1043E0002B100F48FEF799F901241A4B1348214668
:1043F00002221C7000F070FE174802210A22FCF70E
:1044000025FF20460FB0BDE8F08F00BF42BA00087C
:10441000E8130020C413002067BA00080000C84257
:10442000AB130020971300208EBA0008B5BA00081D
:10443000C013002041BB000879BB0008E313002033
:10444000DDBA00080BBB0008BE130020AF1300202C
:10445000D0130020E4130020A8130020AFF3008045
:1044600070B5064601F088FC2C48FEF738F92C4957
:1044700005462C4802F02FFC0A222946294802F062
:10448000C7FC2648FEF77CF927490446254802F078
:1044900022FC0A222348214602F0BAFC0A23B4FB7C
:1044A000F3F203FB124313F0FF0F08D0AC4203D921
:1044B000631B052B2ADD04E02B1B052B26DDAC42FC
:1044C0002AD021461548FEF786F829461348FEF7FC
:1044D000D3F8262002F076FA1F2002F073FA0021AA
:1044E000102002F093FD3046FFF7FAFC1F200F4921
:1044F000022202F049FA26200D49022202F044FA73
:10450000BDE870401020012102F080BD0548094936
:10451000BDE8704002F0F0BB70BD00BFAB130020DF
:10452000F1BB0008E813002022BC00082D2F000872
:10453000992F000854BC000838B5264B05461A7858
:10454000002A45D00022244824491A7002F0D4FBE6
:10455000234B1B7813B12048224935E0224C2378A5
:10456000FBB9224B1B78E3B9262002F02BFA1F205F
:1045700002F028FA0021102002F048FD2846FFF73B
:10458000AFFC1F201A49022202F0FEF92620194929
:10459000022202F0F9F9BDE838401020012102F0B2
:1045A00035BD1F2002F01CFD00B92070262002F04E
:1045B00017FD08B90D4A107023781BB90B4B1B78F7
:1045C000002BD1D004480C49BDE8384002F094BB20
:1045D00038BD00BFC0130020E813002088BC0008CD
:1045E000BF130020B6BC0008C8130020C913002068
:1045F0002D2F0008992F0008FBBC0008F8B51F46B6
:104600000F4B15461B680C4613F00302069E16D18D
:104610000C4B197801B9F8BD1A70FEF7B9FE386075
:104620002368013323603B68B3F5967F03D92A687A
:1046300013442B60F8BD336801333360F8BDF8BD17
:10464000C4130020D11300202DE9FF4799469DF89F
:1046500034301446012B4FF000020E460C9F03929B
:1046600020D103A96048FEF740FB039B40F6B73218
:10467000591E914288BF4FF4487323605A482168FD
:10468000FEF75DFB0546002867D15849584802F0FF
:1046900033FB584B0A221A7057482946022200F071
:1046A0001BFD8EE03A680D68AD1A2268B2FBF5F585
:1046B00025602DB94E48514902F01EFB28468FE077
:1046C000002B40F0818048482946FEF7B2FA804628
:1046D0004748B8F1000F0BD1494902F00DFB454B9B
:1046E0000A221A7044484146022200F0F5FC32E0EA
:1046F000444902F0F0FA0A2221683D4802F09BFB8F
:104700003948FEF702FA03F043F800223E4B03F06B
:10471000CFF903F085FB3D490546354802F0DBFA49
:10472000284603F047F84FF0020A02460B46CDF840
:1047300000A02F4802F038FC206803F077FC2946DF
:1047400003F0CCFC03F036F8CDF800A002460B468F
:10475000274802F029FC012538E02D49244802F0C1
:10476000BAFA0A222168224802F065FB1E48FEF7C9
:10477000CCF903F00DF80022234B03F099F903F074
:104780004FFB224980461A4802F0A5FA404603F042
:1047900011F84FF0020A02460B46CDF800A014486B
:1047A00002F002FC206803F041FC414603F096FC55
:1047B00003F000F8CDF800A002460B460C4802F0CA
:1047C000F3FB4FF0010801E00125A84600239845BE
:1047D000236014BF284618463360C9F800303B6098
:1047E00004B0BDE8F08700BFAB130020FCBD00089B
:1047F000E8130020E4130020E313002038BD000874
:1048000053BD0008ADBD000800002440D9BD00081C
:1048100058BE00082DE9F04F9B498FB000269B4DF4
:1048200004469B488DF80F600496069607960896F6
:104830000A960B9602F060FA0B2396480121022299
:104840002B7000F049FC01F097FA934B93481E70CF
:10485000934BAA461E60FDF736FE074630B98C48DA
:10486000904902F049FA0A232B705AE0DFF864827B
:104870008D4803211422012588F80050FCF7E6FC3E
:104880000CA90DAA33462046FEF720FC814683483A
:10489000FDF725FF59284AD98048FDF720FF6428F5
:1048A00040F2958143E0814B1A68D20702D51A681D
:1048B00001321A60D3F8009020460DF10F01324604
:1048C0000023FEF715FF002800F06B81784970483F
:1048D00002F012FA2046FEF735FC07AB00932046A3
:1048E00005AB06A904AAFFF7E9F90BAB0093002D6D
:1048F00000F02981002301930AA908AA09AB2046E8
:10490000FFF7A2FE65484946FDF7F7FD07466048F8
:10491000002F40F01A81674902F0EEF90A238AF865
:1049200000305C483946022200F0D6FB54E1624870
:104930000021FEF7B3FB0025012600F0BDF900F0D1
:10494000E5F901F019FA8DB1002300930193204697
:104950000DF10F010122FEF75BFD00282FD120464B
:104960000121FEF709FC70B1002735E100950195A2
:1049700020460DF10F012A462B46FEF749FDF0B9FE
:1049800020462946EDE720460C990D9A4B46FEF746
:10499000DDFD0028E8D1002120460A46FEF7A2FCF2
:1049A000002840F019810BAB009320460AA908AA01
:1049B00009ABFFF723FE4148FCF704FBC1E72046A3
:1049C0000DF10F0132460123FEF792FE60B33C4920
:1049D0002F4802F091F92046FEF7B4FB0BAB009391
:1049E00015B10123019300E0019508AA09AB0AA9BA
:1049F0002046FFF729FE4FF001093249244888F884
:104A0000009002F079F94FF47A7000F08FF901F01C
:104A1000B3F920460CA90DAA4B46FEF757FB834677
:104A20002548BDB1002116E01948274902F064F974
:104A3000012388F8003001F09FF9244B01211970FF
:104A4000234B2046197005B92946FEF795FB00282F
:104A5000F1D089E74946FEF721FB00F02DF900F07F
:104A600055F901F089F9002D36D000220DF10F0122
:104A70000092019220461346FEF7CAFC0146002828
:104A80007FF411AF204635E086BE0008E413002015
:104A9000E8130020E313002096130020AB1300203E
:104AA000D4130020C3BE0008A8130020C4130020A4
:104AB000A2BF0008C7BF0008CB1300209713002037
:104AC00015BF000863BF00083ABF0008AF130020FD
:104AD000D0130020BC1300200095019520460DF155
:104AE0000F0101222B46FEF793FC00287FF4DBAE7A
:104AF00020460121FEF740FB00287FF435AF204619
:104B00000C990D9A5B46FEF721FD00287FF42CAF2F
:104B1000002120460A46FEF7E5FB00285CD107ABE2
:104B20000093204606A904AA05ABFFF79DF80BAB3E
:104B3000009320460AA908AA09ABFFF75FFD2848A1
:104B4000FCF740FA8DE70123D5E6264902F0C3F8C9
:104B50000A224946244802F06EF92449224802F00C
:104B6000CBF89DF80F102248FDF735FD9DF80F108A
:104B70001F48FDF781FD9DF80F101D48FDF7CDFD85
:104B80001B48FDF77CFC0C231A48012102228AF8FD
:104B9000003000F0A1FA184802210A22FCF756FB67
:104BA0001AE01148154902F0A7F8012388F80030EF
:104BB00001F0E2F8124B01211970124B20461970D6
:104BC00005B10021FEF7D8FA0028F1D0CCE60E4856
:104BD0002946FEF763FAB0E638460FB0BDE8F08F1D
:104BE00097130020F6BF0008E813002032C0000829
:104BF000AB130020E3130020A81300203ABF0008E5
:104C0000AF130020D0130020CB1300200148112146
:104C100000F0BEBCD8130020034B1A6801321A60A2
:104C2000024B01221A707047C4130020D1130020D8
:104C3000064B1A6801321A601A68B2F5615F04D334
:104C400000221A60024B01221A707047DC13002008
:104C5000E613002010B5094C0949204601F0B9FFC0
:104C600020460121074A01F0D3FF2046002101F030
:104C7000A7FF2046BDE8104001F08CBFE0140020E3
:104C800040420F00194C000810B5084C0849204656
:104C900001F09FFF20460121064A01F0B9FF20469E
:104CA0000021BDE8104001F08BBF00BFE4140020DC
:104CB00040420F00314C000810B5074B0021074C53
:104CC0001960074B2046197001F07AFF2046BDE8B5
:104CD000104001F067BF00BFC4130020E0140020A3
:104CE000D113002010B5054C204601F05BFF204693
:104CF0000021BDE8104001F063BF00BFE4140020B4
:104D0000014801F047BF00BFE0140020014801F056
:104D100041BF00BFE414002001F00F03090901EBBB
:104D2000810103EB4100C0B270470000074A30B573
:104D3000136815462C6819188C42044A04D8116867
:104D4000994238BF1368F5E730BD00BF84150020D5
:104D500037B50C460C480DF10701FDF77CF99DF8BD
:104D600007304FF47A705843084902F070F99DF803
:104D70000730054664205843054902F068F9284485
:104D8000206003B030BD00BFAD13002060E316000B
:104D9000400D030070B50E4615460024E3B2AB4249
:104DA000074809D2315D102202F029F8044805496C
:104DB00001F091FF0134F1E7BDE8704001F090BFD0
:104DC000E8130020D7BD000830B595B04022054655
:104DD000002104A803F0BAFE002314A941F8503DB5
:104DE00028466946FFF7B4FF009802F049F900F041
:104DF000C3FFFE238DF81030E0238DF8113011230E
:104E00008DF8123024238DF81330C0238DF8143020
:104E100001238DF815303B4B1B7803B155233A48DD
:104E20008DF81630FDF7F4FD01AC8DF81700214622
:104E30003548FDF748FD002304AA1A44E15C01331C
:104E4000052B1172F8D131482146FDF7ACF800234B
:104E500004AA1A44E15C0133092B5173F8D10024F0
:104E6000012305A824218DF826308DF827408DF8E0
:104E700028408DF829408DF82A408DF82B408DF878
:104E80002C408DF82D408DF82E408DF82F408DF858
:104E900030408DF831408DF832408DF833408DF838
:104EA00034408DF835408DF836408DF8374000F0AD
:104EB00035FB8DF83800E30704AB234404F101040B
:104EC00054BF0D220A22062C83F82920F3D1104961
:104ED000104801F011FF04A928462F22FFF75AFFBE
:104EE0000D48FCF7D3F90D4804A903682F229B68ED
:104EF0009847C82002F0B6F80748FCF7DFF915B06C
:104F000030BD00BF95130020AB130020AD1300206F
:104F100073C00008E8130020A8130020001400202C
:104F200010B586B014220446002101A803F00EFE3D
:104F3000002306A941F8183D20466946FFF708FFFF
:104F4000009802F09DF800F017FFFE238DF8043062
:104F5000E0238DF8053012238DF8063005238DF8F7
:104F60000730C0238DF8083001238DF809301D4B20
:104F70001B7803B155231C488DF80A30FDF748FD16
:104F800001238DF80B00052102A88DF80C3000F0EC
:104F9000C5FA00238DF80D00DA0701AA1A4403F1BF
:104FA000010354BF0D210A21062B9172F4D10F4940
:104FB0000F4801F0A1FE01A920461022FFF7EAFEEA
:104FC0000C48FCF763F90C4801A9036810229B68A0
:104FD0009847C82002F046F80648FCF76FF906B07B
:104FE00010BD00BF95130020AB1300208FC0000838
:104FF000E8130020A81300200014002010B586B08C
:1050000014220446002101A803F0A0FD002306A9F4
:1050100041F8183D20466946FFF79AFE009802F0D5
:105020002FF800F0A9FEFE238DF80430E0238DF860
:10503000053013238DF8063005238DF80730C02383
:105040008DF8083001238DF809301D4B1B7803B112
:1050500055231C488DF80A30FDF7DAFC01238DF842
:105060000B00052102A88DF80C3000F057FA002340
:105070008DF80D00DA0701AA1A4403F1010354BFA9
:105080000D210A21062B9172F4D10F490F4801F02E
:1050900033FE01A920461022FFF77CFE0C48FCF7E6
:1050A000F5F80C4801A9036810229B689847C820AE
:1050B00001F0D8FF0648FCF701F906B010BD00BFAB
:1050C00095130020AB1300208FC00008E8130020C8
:1050D000A81300200014002070B592B00C460546BD
:1050E000164602A80021402203F030FD0023019360
:1050F00000F042FE34B1284601A9FFF729FE0198CD
:1051000001F0BEFF00F038FEFE238DF80830E023EA
:105110008DF8093014238DF80A301A238DF80B30DE
:10512000C0238DF80C3001238DF80D304B4B1B78CC
:1051300003B155234A488DF80E30FDF769FC012371
:105140008DF81030474B8DF80F001B7846488DF8CE
:105150001130FEF71DFD454C0028B8BF4042031238
:1051600021788DF8130042488DF81230FFF7D4FDF6
:1051700061788DF814003E48FFF7CEFD8DF81500DC
:105180003748FDF7FDFA8DF816003548FDF7ABFC02
:1051900000248DF8180032488DF81740FDF7B5FC53
:1051A0008DF81A0030488DF81940FEF7F1F8030A1F
:1051B0008DF81C002A488DF81B30FDF7B8FC01461D
:1051C0002B48FFF7A9FD8DF81D002A48FDF79EF832
:1051D00014238DF81E008DF81F3003A853231A21C5
:1051E0008DF820308DF821408DF822408DF8234035
:1051F0008DF824408DF8254000F090F98DF82600B8
:10520000E30702AB234404F1010454BF0D220A2238
:10521000062CDA77F4D11849184801F06DFD2846BC
:1052200002A92522FFF7B6FD0024E3B2B34212D251
:1052300000F0A2FD1248FCF729F8124802A9036801
:1052400025229B689847104801F01AFF0C48FCF78C
:1052500035F80134E9E712B070BD00BF95130020A6
:10526000AB130020E4130020CB130020E113002037
:10527000E0130020AA130020B5C00008E8130020A6
:10528000A813002000140020400D03002DE9F04178
:105290008AB00546884617460021192203A803F064
:1052A00055FC00260AA941F8206D2846404CFFF71E
:1052B0004FFD029801F0E4FE00F05EFD23780BB193
:1052C000637833B900963B48394901223A4BFCF7E1
:1052D0002BFBFE238DF80C30E0238DF80D301523C9
:1052E0008DF80E300E238DF80F30C0238DF810305E
:1052F00001238DF81130314B1B7803B15523304811
:105300008DF81230FDF784FB012321788DF813000E
:105310002C488DF814308DF81580FFF7FDFC61786E
:105320008DF816002748FFF7F7FC00248DF81700CA
:105330000E2104A88DF818408DF819408DF81A40F8
:105340008DF81B408DF81C408DF81D4000F0E6F8EC
:105350008DF81E00E30703AB234404F1010454BF9E
:105360000D220A22062CDA74F4D11749174801F0ED
:10537000C3FC284603A91922FFF70CFD1448FBF7CC
:1053800085FF0024E3B2BB420CD200F0F5FC1148CB
:1053900003A9036819229B689847C82001F062FEA0
:1053A0000134EFE70A48FBF789FF0AB0BDE8F08156
:1053B000E1130020A9130020CFC00008951300209E
:1053C000AB130020E0130020D9C00008E813002030
:1053D000A81300200014002001480021FCF738BC6D
:1053E000A91300201FB5304801A9FCF7D5FE2F4CAA
:1053F000C0B92F492F4801F07FFC2F48FFF7FEFD71
:105400002E48FBF7DFFD40F6B83001F02BFE00F030
:10541000B3FC23780133DBB2322B2370E3D900F0E5
:10542000DFFCE0E7002323702548FDF773FAC0B9DD
:105430002449204801F060FC1F48FFF771FD1F4818
:10544000FBF7C0FD40F6B83001F00CFE00F094FC14
:1054500023780133DBB2322B2370E5D900F0C0FC96
:10546000E2E7002323701648FDF7D5FAC0B91649C4
:10547000104801F041FC1048FFF7C0FD0F48FBF752
:10548000A1FD40F6B83001F0EDFD00F075FC237889
:105490000133DBB2322B2370E5D900F0A1FCE2E747
:1054A0000023237004B010BDAD130020E5130020CD
:1054B000F1C00008E8130020E31300209713002038
:1054C000AB1300203FC1000897C1000808B50F4B7F
:1054D0001A78CAB100221A70FFF718FC0C48012193
:1054E0000522FBF7B3FEFFF777FFFFF77BFFFFF720
:1054F000F9FB074802210A22FBF7A8FEBDE8084095
:105500000448054901F0F8BB08BD00BFE6130020C0
:10551000A8130020E8130020EDC10008002330B5D7
:10552000054618468B420FDAEA5C5040082210F01C
:10553000010F4FEA60041ABF84F0E000C0B2E0B28D
:10554000013AF4D10133EDE730BD122938B50546F3
:10555000144608460BD0132910D0112916D100F09B
:105560006DF80CB120460FE047F6FF700CE000F03C
:1055700065F8002CF6D149F63F4005E000F05EF8F2
:10558000002CEFD14FF2234000F0E0F8284638BD60
:1055900013B50022044601A8FFF7D7FF204602B04A
:1055A00010BD0000054B1B681B685B0103F18443C1
:1055B00094331A68002AFCD0704700BF0C0000200A
:1055C000054B1B681B685B0103F184438C331A682D
:1055D000002AFCD0704700BF0C00002008B5FFF780
:1055E000E1FF054B00221B681B685B0103F184434C
:1055F000C3F88C2008BD00BF0C00002008B5FFF7E1
:10560000D1FF054B01221B681B685B0103F184433A
:10561000C3F8902008BD00BF0C00002008B5FFF7BC
:10562000C1FF054B00221B681B685B0103F184432B
:10563000C3F8902008BD00BF0C00002010B5044640
:1056400000F002FB00F00CFB204A112C136A23F43B
:105650004073136213460BD005D8C4B1102C2AD165
:105660000023136227E0122C11D0132C1AD022E051
:10567000174A00211160012142F8081C154A1268DE
:1056800012F0FF0FFAD01A6A42F4807212E0124A46
:1056900001211160114A1268002AFBD01A6A42F4F3
:1056A000007207E00E4A126812F0FF0FFAD01A6A71
:1056B00042F440721A620B4B01221A60FFF78EFF10
:1056C000FFF77EFFBDE81040FFF76CBF00100240FF
:1056D000080442420404424280044242840442429A
:1056E000440042423C044242F8B5104B1E68356803
:1056F0002B686F681F4017F0010403D074680CB169
:10570000A0470124BA0704D5B36813B1984744F001
:1057100002047B0704D5F36813B1984744F00404EE
:105720006B6823EA04046C60F8BD00BF0C00002025
:1057300008B5044B1B681B691BB19847024B01223B
:105740001A6008BD0C000020C482204210B5044637
:10575000FFF744FFFFF734FFFFF724FFFFF74EFF8B
:10576000064B220C1B68A4B21B689A60DC60FFF732
:1057700055FFBDE81040FFF715BF00BF0C0000202B
:10578000124B10B5196809220A23114801F08EF94D
:10579000104B022219681048032301F087F90F4BC0
:1057A0001A2219680E481B2301F080F90D4B2A229A
:1057B00019680D482B2301F079F9BDE810400B4B17
:1057C0000B4819682C22322301F070B9C80100205F
:1057D000E8130020CC01002000140020D00100209C
:1057E00018140020B80E002030140020BC0E002039
:1057F0004814002010B5044600F0F6F9034B20468B
:105800001978BDE8104000F04FB900BF2800002013
:10581000F8B50446056800F00BFC2268002351012E
:1058200001F184410B60802129600121A9622B6173
:10583000EB606379696113B18B4203D02BE04FF4C5
:1058400000436B644FF6FF73D36200256E1CF7B202
:105850002046394600F0F6FBD0B1236848F6FF71C8
:1058600003F1340242F8251018336D1017F0010FC0
:1058700053F8252014BF6FF0FF016FF47F4101EA58
:10588000020214BF68214FF4D0410A4343F8252097
:10589000042E3546DAD1216801224B01490103F17A
:1058A000844301F18441C3F880220A60F8BD704747
:1058B00038B5274B274C1A68022042F010021A60B4
:1058C00000F0E8F90025002000F0AEFA65602368DA
:1058D000182023F40023236000F0B3FA102000F016
:1058E000B0FA00F043F8A560102000F09DFA1020F7
:1058F00000F0C4FA0028FAD000F039F8164800F099
:10590000C9FA182000F090FA182000F0B7FA002821
:10591000FAD0022000F078FA00214FF0006000F089
:1059200047FA0E4800F02CFB00F038F80C4B1888B2
:1059300000F044F90B4800F045F90B4800F054FB27
:1059400000F02EF800F02DF8FFF7B1FF38BD00BFD2
:1059500000200240001002402C0000203F190100EE
:105960002A000020F557000811580008704708B5B4
:105970000020014600F0DCFA01204FF4806100F0C5
:10598000D7FA0021022000F0D3FA2D2000F0E0FA2F
:10599000BDE808400320002100F0CABA00F084B935
:1059A000704700F0CFB9000001498D460149084712
:1059B00000C00020B959000808B5124B124A1968F6
:1059C000914201D0002301E0104B07E01048D418A9
:1059D0008442F9D2C858D0500433F7E70D4A9342B5
:1059E00003D2002243F8042BF8E703F087F80020E5
:1059F0000146024601F046F9074B0BB103F06EF881
:105A0000FEE700BF30C7000800000020F0120020B1
:105A1000F012002088150020DD8A0008FEE7000053
:105A2000012007E0022005E0032003E0042001E05C
:105A30000520FFE70D4A0121116072B60C4A0021D2
:105A40001160074902B4084902B486B005498E4680
:105A5000704700BFAFF30080AFF30080AFF300806A
:105A600000000061F9FFFFFF1169000814ED00E07C
:105A700010E000E0AFF30080AFF30080AFF30080F0
:105A8000FEE710B50446007900F020FA2079BDE861
:105A9000104000F033BA03689A6822F4602242F49E
:105AA0008012114399607047002370B51A461C4656
:105AB000072B4FEA430503DCEE1801FA06F63443E0
:105AC0001D4401FA05F501330A2B42EA0502EFD124
:105AD0000368DC601A6170BD0368DA6A22F0F8724C
